{
  "contracts/WITHS.sol": {
    "WIHTS": {
      "abi": [
        {
          "inputs": [],
          "stateMutability": "nonpayable",
          "type": "constructor"
        },
        {
          "inputs": [
            {
              "internalType": "uint256",
              "name": "counterfactualNumberInWallet",
              "type": "uint256"
            }
          ],
          "name": "MaximumPerWalletExceeded",
          "type": "error"
        },
        {
          "inputs": [
            {
              "internalType": "uint256",
              "name": "counterfactualNewSupply",
              "type": "uint256"
            }
          ],
          "name": "MaximumSupplyExceeded",
          "type": "error"
        },
        {
          "inputs": [],
          "name": "MintClosed",
          "type": "error"
        },
        {
          "inputs": [],
          "name": "RoyaltiesTooHigh",
          "type": "error"
        },
        {
          "inputs": [],
          "name": "TokenNonexistent",
          "type": "error"
        },
        {
          "inputs": [
            {
              "internalType": "uint256",
              "name": "expectedFee",
              "type": "uint256"
            },
            {
              "internalType": "uint256",
              "name": "receivedFee",
              "type": "uint256"
            }
          ],
          "name": "WrongFee",
          "type": "error"
        },
        {
          "inputs": [],
          "name": "ZeroMintsRequested",
          "type": "error"
        },
        {
          "anonymous": false,
          "inputs": [
            {
              "indexed": true,
              "internalType": "address",
              "name": "owner",
              "type": "address"
            },
            {
              "indexed": true,
              "internalType": "address",
              "name": "approved",
              "type": "address"
            },
            {
              "indexed": true,
              "internalType": "uint256",
              "name": "tokenId",
              "type": "uint256"
            }
          ],
          "name": "Approval",
          "type": "event"
        },
        {
          "anonymous": false,
          "inputs": [
            {
              "indexed": true,
              "internalType": "address",
              "name": "owner",
              "type": "address"
            },
            {
              "indexed": true,
              "internalType": "address",
              "name": "operator",
              "type": "address"
            },
            {
              "indexed": false,
              "internalType": "bool",
              "name": "approved",
              "type": "bool"
            }
          ],
          "name": "ApprovalForAll",
          "type": "event"
        },
        {
          "anonymous": false,
          "inputs": [
            {
              "indexed": true,
              "internalType": "address",
              "name": "previousOwner",
              "type": "address"
            },
            {
              "indexed": true,
              "internalType": "address",
              "name": "newOwner",
              "type": "address"
            }
          ],
          "name": "OwnershipTransferred",
          "type": "event"
        },
        {
          "anonymous": false,
          "inputs": [
            {
              "indexed": true,
              "internalType": "address",
              "name": "from",
              "type": "address"
            },
            {
              "indexed": true,
              "internalType": "address",
              "name": "to",
              "type": "address"
            },
            {
              "indexed": true,
              "internalType": "uint256",
              "name": "tokenId",
              "type": "uint256"
            }
          ],
          "name": "Transfer",
          "type": "event"
        },
        {
          "inputs": [
            {
              "internalType": "address",
              "name": "to",
              "type": "address"
            },
            {
              "internalType": "uint256",
              "name": "tokenId",
              "type": "uint256"
            }
          ],
          "name": "approve",
          "outputs": [],
          "stateMutability": "nonpayable",
          "type": "function"
        },
        {
          "inputs": [
            {
              "internalType": "address",
              "name": "owner",
              "type": "address"
            }
          ],
          "name": "balanceOf",
          "outputs": [
            {
              "internalType": "uint256",
              "name": "",
              "type": "uint256"
            }
          ],
          "stateMutability": "view",
          "type": "function"
        },
        {
          "inputs": [],
          "name": "baseURI",
          "outputs": [
            {
              "internalType": "string",
              "name": "",
              "type": "string"
            }
          ],
          "stateMutability": "view",
          "type": "function"
        },
        {
          "inputs": [
            {
              "internalType": "address",
              "name": "",
              "type": "address"
            }
          ],
          "name": "claimed",
          "outputs": [
            {
              "internalType": "uint256",
              "name": "",
              "type": "uint256"
            }
          ],
          "stateMutability": "view",
          "type": "function"
        },
        {
          "inputs": [],
          "name": "freeMints",
          "outputs": [
            {
              "internalType": "uint256",
              "name": "",
              "type": "uint256"
            }
          ],
          "stateMutability": "view",
          "type": "function"
        },
        {
          "inputs": [
            {
              "internalType": "uint256",
              "name": "tokenId",
              "type": "uint256"
            }
          ],
          "name": "getApproved",
          "outputs": [
            {
              "internalType": "address",
              "name": "",
              "type": "address"
            }
          ],
          "stateMutability": "view",
          "type": "function"
        },
        {
          "inputs": [
            {
              "internalType": "address",
              "name": "owner",
              "type": "address"
            },
            {
              "internalType": "address",
              "name": "operator",
              "type": "address"
            }
          ],
          "name": "isApprovedForAll",
          "outputs": [
            {
              "internalType": "bool",
              "name": "",
              "type": "bool"
            }
          ],
          "stateMutability": "view",
          "type": "function"
        },
        {
          "inputs": [
            {
              "internalType": "uint256",
              "name": "amount",
              "type": "uint256"
            }
          ],
          "name": "mint",
          "outputs": [],
          "stateMutability": "payable",
          "type": "function"
        },
        {
          "inputs": [],
          "name": "mintOpen",
          "outputs": [
            {
              "internalType": "bool",
              "name": "",
              "type": "bool"
            }
          ],
          "stateMutability": "view",
          "type": "function"
        },
        {
          "inputs": [],
          "name": "name",
          "outputs": [
            {
              "internalType": "string",
              "name": "",
              "type": "string"
            }
          ],
          "stateMutability": "view",
          "type": "function"
        },
        {
          "inputs": [],
          "name": "owner",
          "outputs": [
            {
              "internalType": "address",
              "name": "",
              "type": "address"
            }
          ],
          "stateMutability": "view",
          "type": "function"
        },
        {
          "inputs": [
            {
              "internalType": "uint256",
              "name": "tokenId",
              "type": "uint256"
            }
          ],
          "name": "ownerOf",
          "outputs": [
            {
              "internalType": "address",
              "name": "",
              "type": "address"
            }
          ],
          "stateMutability": "view",
          "type": "function"
        },
        {
          "inputs": [],
          "name": "price",
          "outputs": [
            {
              "internalType": "uint256",
              "name": "",
              "type": "uint256"
            }
          ],
          "stateMutability": "view",
          "type": "function"
        },
        {
          "inputs": [],
          "name": "renounceOwnership",
          "outputs": [],
          "stateMutability": "nonpayable",
          "type": "function"
        },
        {
          "inputs": [
            {
              "internalType": "uint256",
              "name": "",
              "type": "uint256"
            },
            {
              "internalType": "uint256",
              "name": "value",
              "type": "uint256"
            }
          ],
          "name": "royaltyInfo",
          "outputs": [
            {
              "internalType": "address",
              "name": "receiver",
              "type": "address"
            },
            {
              "internalType": "uint256",
              "name": "royaltyAmount",
              "type": "uint256"
            }
          ],
          "stateMutability": "view",
          "type": "function"
        },
        {
          "inputs": [
            {
              "internalType": "address",
              "name": "from",
              "type": "address"
            },
            {
              "internalType": "address",
              "name": "to",
              "type": "address"
            },
            {
              "internalType": "uint256",
              "name": "tokenId",
              "type": "uint256"
            }
          ],
          "name": "safeTransferFrom",
          "outputs": [],
          "stateMutability": "nonpayable",
          "type": "function"
        },
        {
          "inputs": [
            {
              "internalType": "address",
              "name": "from",
              "type": "address"
            },
            {
              "internalType": "address",
              "name": "to",
              "type": "address"
            },
            {
              "internalType": "uint256",
              "name": "tokenId",
              "type": "uint256"
            },
            {
              "internalType": "bytes",
              "name": "_data",
              "type": "bytes"
            }
          ],
          "name": "safeTransferFrom",
          "outputs": [],
          "stateMutability": "nonpayable",
          "type": "function"
        },
        {
          "inputs": [
            {
              "internalType": "address",
              "name": "operator",
              "type": "address"
            },
            {
              "internalType": "bool",
              "name": "approved",
              "type": "bool"
            }
          ],
          "name": "setApprovalForAll",
          "outputs": [],
          "stateMutability": "nonpayable",
          "type": "function"
        },
        {
          "inputs": [
            {
              "internalType": "string",
              "name": "newBaseURI",
              "type": "string"
            }
          ],
          "name": "setBaseURI",
          "outputs": [],
          "stateMutability": "nonpayable",
          "type": "function"
        },
        {
          "inputs": [
            {
              "internalType": "uint256",
              "name": "newPrice",
              "type": "uint256"
            }
          ],
          "name": "setPrice",
          "outputs": [],
          "stateMutability": "nonpayable",
          "type": "function"
        },
        {
          "inputs": [
            {
              "internalType": "address",
              "name": "royaltyReceiver",
              "type": "address"
            },
            {
              "internalType": "uint256",
              "name": "royaltyAmount",
              "type": "uint256"
            }
          ],
          "name": "setRoyalties",
          "outputs": [],
          "stateMutability": "nonpayable",
          "type": "function"
        },
        {
          "inputs": [
            {
              "internalType": "string",
              "name": "_unrevealedURI",
              "type": "string"
            }
          ],
          "name": "setUnrevealedURI",
          "outputs": [],
          "stateMutability": "nonpayable",
          "type": "function"
        },
        {
          "inputs": [
            {
              "internalType": "bytes4",
              "name": "interfaceId",
              "type": "bytes4"
            }
          ],
          "name": "supportsInterface",
          "outputs": [
            {
              "internalType": "bool",
              "name": "",
              "type": "bool"
            }
          ],
          "stateMutability": "view",
          "type": "function"
        },
        {
          "inputs": [],
          "name": "symbol",
          "outputs": [
            {
              "internalType": "string",
              "name": "",
              "type": "string"
            }
          ],
          "stateMutability": "view",
          "type": "function"
        },
        {
          "inputs": [],
          "name": "toggleMint",
          "outputs": [],
          "stateMutability": "nonpayable",
          "type": "function"
        },
        {
          "inputs": [
            {
              "internalType": "uint256",
              "name": "index",
              "type": "uint256"
            }
          ],
          "name": "tokenByIndex",
          "outputs": [
            {
              "internalType": "uint256",
              "name": "",
              "type": "uint256"
            }
          ],
          "stateMutability": "view",
          "type": "function"
        },
        {
          "inputs": [
            {
              "internalType": "address",
              "name": "owner",
              "type": "address"
            },
            {
              "internalType": "uint256",
              "name": "index",
              "type": "uint256"
            }
          ],
          "name": "tokenOfOwnerByIndex",
          "outputs": [
            {
              "internalType": "uint256",
              "name": "tokenId",
              "type": "uint256"
            }
          ],
          "stateMutability": "view",
          "type": "function"
        },
        {
          "inputs": [
            {
              "internalType": "uint256",
              "name": "tokenId",
              "type": "uint256"
            }
          ],
          "name": "tokenURI",
          "outputs": [
            {
              "internalType": "string",
              "name": "",
              "type": "string"
            }
          ],
          "stateMutability": "view",
          "type": "function"
        },
        {
          "inputs": [],
          "name": "totalSupply",
          "outputs": [
            {
              "internalType": "uint256",
              "name": "",
              "type": "uint256"
            }
          ],
          "stateMutability": "view",
          "type": "function"
        },
        {
          "inputs": [
            {
              "internalType": "address",
              "name": "from",
              "type": "address"
            },
            {
              "internalType": "address",
              "name": "to",
              "type": "address"
            },
            {
              "internalType": "uint256",
              "name": "tokenId",
              "type": "uint256"
            }
          ],
          "name": "transferFrom",
          "outputs": [],
          "stateMutability": "nonpayable",
          "type": "function"
        },
        {
          "inputs": [
            {
              "internalType": "address",
              "name": "newOwner",
              "type": "address"
            }
          ],
          "name": "transferOwnership",
          "outputs": [],
          "stateMutability": "nonpayable",
          "type": "function"
        },
        {
          "inputs": [],
          "name": "unrevealedURI",
          "outputs": [
            {
              "internalType": "string",
              "name": "",
              "type": "string"
            }
          ],
          "stateMutability": "view",
          "type": "function"
        },
        {
          "inputs": [],
          "name": "withdraw",
          "outputs": [],
          "stateMutability": "nonpayable",
          "type": "function"
        }
      ],
      "evm": {
        "bytecode": {
          "linkReferences": {},
          "object": "60406080815234620003fd576200001562000402565b90601382526020917f57697368204920486164205468652053616d6500000000000000000000000000838201526200004c62000402565b600580825264574948545360d81b85830152825191946001600160401b03939092918483116200023e576001928062000086855462000422565b93601f94858111620003c2575b5086908583116001146200035a576000926200034e575b5050600019600383901b1c191690841b1783555b8651968588116200023e57600290620000d8825462000422565b8985821162000312575b50508590848a1160011462000286579880917f556446486f4e32734d43354c396448356d785f413653664935536679765930009798999a6000926200027a575b5050600019600383901b1c191690851b1781555b60088054336001600160a01b03198216811790925589516001600160a01b03909116907f8be0079c531659141344cd1fd0a4f28419497f9722a3daafe3b4186f6b6457e090600090a3661c110215b9c000600d5562000197600e5462000422565b9183831162000254575b50505050607f600e55600e600052826000207f68747470733a2f2f617277656176652e6e65742f5464786567424d4f7331477481550155825183810192818410908411176200023e5791835273c703e1c25ceab92f4a88beb51f6c03ef72055aa3825260fa910152600780546001600160b81b03191674fac703e1c25ceab92f4a88beb51f6c03ef72055aa317905551612f099081620004798239f35b634e487b7160e01b600052604160045260246000fd5b6200027093600e600052876000209301901c820191016200045f565b38808080620001a1565b01519050388062000122565b90601f198a169183600052876000209260005b818110620002fc5750918793918c7f556446486f4e32734d43354c396448356d785f413653664935536679765930009a9b9c9d9410620002e2575b505050811b01815562000136565b015160001960f88460031b161c19169055388080620002d4565b8284015185559388019392890192890162000299565b6200033c91846000528689600020918a828501891c8401941062000344575b01861c01906200045f565b3889620000e2565b9250819262000331565b015190503880620000aa565b90869350601f1983169184600052886000209260005b8a828210620003ab575050841162000391575b505050811b018355620000be565b015160001960f88460031b161c1916905538808062000383565b8385015186558a9790950194938401930162000370565b620003ec90876000528860002087808601881c8201928b8710620003f3575b01871c01906200045f565b3862000093565b92508192620003e1565b600080fd5b60408051919082016001600160401b038111838210176200023e57604052565b90600182811c9216801562000454575b60208310146200043e57565b634e487b7160e01b600052602260045260246000fd5b91607f169162000432565b8181106200046b575050565b600081556001016200045f56fe60806040526004361015610013575b600080fd5b60003560e01c806301ffc9a7146102a757806306fdde031461029e578063081812fc14610295578063095ea7b31461028c57806318160ddd1461028357806323b872dd1461027a57806324bbd049146102715780632a55205a146102685780632f745c591461025f5780633ccfd60b1461025657806342842e0e1461024d5780634f6ccce71461024457806355f804b31461023b5780636352211e146102325780636c0360eb146102295780637035bf181461022057806370a0823114610217578063715018a61461020e57806380b17335146102055780638c7ea24b146101fc5780638da5cb5b146101f357806391b7f5ed146101ea57806395d89b41146101e1578063a035b1fe146101d8578063a0712d68146101cf578063a22cb465146101c6578063b88d4fde146101bd578063c87b56dd146101b4578063c884ef83146101ab578063d3dd5fe0146101a2578063e985e9c514610199578063f2fde38b146101905763fe2c7fee1461018857600080fd5b61000e61191e565b5061000e611866565b5061000e6117e9565b5061000e61177c565b5061000e611734565b5061000e61162f565b5061000e6115ce565b5061000e611446565b5061000e611253565b5061000e611234565b5061000e61118c565b5061000e61114f565b5061000e61111a565b5061000e610ff4565b5061000e610fd5565b5061000e610f4c565b5061000e610e54565b5061000e610dac565b5061000e610d04565b5061000e610afe565b5061000e6109b2565b5061000e610993565b5061000e61094b565b5061000e610882565b5061000e610852565b5061000e6107ea565b5061000e6107c6565b5061000e61079c565b5061000e61073b565b5061000e610604565b5061000e610581565b5061000e61047f565b5061000e6102da565b7fffffffff0000000000000000000000000000000000000000000000000000000081160361000e57565b503461000e57602060031936011261000e5760207fffffffff0000000000000000000000000000000000000000000000000000000060043561031b816102b0565b167f2a55205a000000000000000000000000000000000000000000000000000000008114908115610352575b506040519015158152f35b7f80ac58cd000000000000000000000000000000000000000000000000000000008114915081156103e7575b81156103bd575b8115610393575b5038610347565b7f01ffc9a7000000000000000000000000000000000000000000000000000000009150143861038c565b7f780e9d630000000000000000000000000000000000000000000000000000000081149150610385565b7f5b5e139f000000000000000000000000000000000000000000000000000000008114915061037e565b918091926000905b82821061043157501161042a575050565b6000910152565b91508060209183015181860152018291610419565b90601f19601f60209361046481518092818752878088019101610411565b0116010190565b90602061047c928181520190610446565b90565b503461000e5760008060031936011261057e57604051908060018054916104a583610b3c565b8086529282811690811561053657506001146104dc575b6104d8856104cc81870382610c05565b6040519182918261046b565b0390f35b92508083527fb10e2d527612073b26eecdfd717e6a320cf44b4afac2b0732d9fcbe2b7fa0cf65b82841061051e5750505081016020016104cc826104d86104bc565b80546020858701810191909152909301928101610503565b8695506104d8969350602092506104cc9491507fffffffffffffffffffffffffffffffffffffffffffffffffffffffffffffff001682840152151560051b82010192936104bc565b80fd5b503461000e57602060031936011261000e5760206105a0600435611cac565b73ffffffffffffffffffffffffffffffffffffffff60405191168152f35b6004359073ffffffffffffffffffffffffffffffffffffffff8216820361000e57565b6024359073ffffffffffffffffffffffffffffffffffffffff8216820361000e57565b503461000e57604060031936011261000e5761061e6105be565b60243561062a81611b96565b509173ffffffffffffffffffffffffffffffffffffffff80841680918316146106d25761066a9361066591331490811561066c575b50611c3b565b6122bd565b005b6106cc91506106c5906106a0339173ffffffffffffffffffffffffffffffffffffffff166000526006602052604060002090565b9073ffffffffffffffffffffffffffffffffffffffff16600052602052604060002090565b5460ff1690565b3861065f565b608460405162461bcd60e51b8152602060048201526024808201527f4552433732315073693a20617070726f76616c20746f2063757272656e74206f60448201527f776e6572000000000000000000000000000000000000000000000000000000006064820152fd5b503461000e57600060031936011261000e576020600454604051908152f35b600319606091011261000e5773ffffffffffffffffffffffffffffffffffffffff90600435828116810361000e5791602435908116810361000e579060443590565b503461000e5761066a6107ae3661075a565b916107c16107bc8433611e4e565b611d47565b611ffa565b503461000e57600060031936011261000e57602060ff600c54166040519015158152f35b503461000e57604060031936011261000e576040805161080981610bbf565b61271061084560206007549362ffffff73ffffffffffffffffffffffffffffffffffffffff86169586835260a01c169182910152602435611b5b565b0482519182526020820152f35b503461000e57604060031936011261000e57602061087a6108716105be565b60243590612974565b604051908152f35b503461000e5760008060031936011261057e578080808061090a73ffffffffffffffffffffffffffffffffffffffff6108c081600854163314611a71565b82808080600a4704818115610942575b73db2da28be4d1bf9b1a988643d0a82033cd7b011c90f115610935575b6008541673ffffffffffffffffffffffffffffffffffffffff1690565b479082821561092c575bf11561091f57604051f35b6109276123ae565b604051f35b506108fc610914565b61093d6123ae565b6108ed565b506108fc6108d0565b503461000e5761066a61095d3661075a565b90604051926020840184811067ffffffffffffffff821117610986575b60405260008452611db8565b61098e610b8f565b61097a565b503461000e57602060031936011261000e57602061087a6004356128ae565b503461000e5760208060031936011261000e5767ffffffffffffffff60043581811161000e573660238201121561000e57806004013591821161000e576024903682848301011161000e57610a2073ffffffffffffffffffffffffffffffffffffffff600854163314611a71565b610a3483610a2f600954610b3c565b612ca5565b600093601f8411600114610a725750928293600093610a65575b5050506000198260011b9260031b1c191617600955005b0101359050388080610a4e565b91601f19841694610aa560096000527f6e1540171b6c0c960b71a7020d9f60077f6af931a8bbf590da0223dacf75c7af90565b9381905b878210610ae45750508460019610610ac8575b50505050811b01600955005b60001960f88660031b161c199201013516905538808080610abc565b806001849786839596890101358155019601920190610aa9565b503461000e57602060031936011261000e576020610b1d600435611b96565b5073ffffffffffffffffffffffffffffffffffffffff60405191168152f35b90600182811c92168015610b85575b6020831014610b5657565b7f4e487b7100000000000000000000000000000000000000000000000000000000600052602260045260246000fd5b91607f1691610b4b565b507f4e487b7100000000000000000000000000000000000000000000000000000000600052604160045260246000fd5b6040810190811067ffffffffffffffff821117610bdb57604052565b610be3610b8f565b604052565b610120810190811067ffffffffffffffff821117610bdb57604052565b90601f601f19910116810190811067ffffffffffffffff821117610bdb57604052565b60405190600082600e5491610c3c83610b3c565b80835292600190818116908115610cc45750600114610c65575b50610c6392500383610c05565b565b600e600090815291507fbb7b4a454dc3493923482f07822329ed19e8244eff582cc204f8554c3620c3fd5b848310610ca95750610c63935050810160200138610c56565b81935090816020925483858a01015201910190918592610c90565b60209350610c639592507fffffffffffffffffffffffffffffffffffffffffffffffffffffffffffffff0091501682840152151560051b82010138610c56565b503461000e5760008060031936011261057e576040519080600954610d2881610b3c565b808552916001918083169081156105365750600114610d51576104d8856104cc81870382610c05565b9250600983527f6e1540171b6c0c960b71a7020d9f60077f6af931a8bbf590da0223dacf75c7af5b828410610d945750505081016020016104cc826104d86104bc565b80546020858701810191909152909301928101610d79565b503461000e5760008060031936011261057e576040519080600e54610dd081610b3c565b808552916001918083169081156105365750600114610df9576104d8856104cc81870382610c05565b9250600e83527fbb7b4a454dc3493923482f07822329ed19e8244eff582cc204f8554c3620c3fd5b828410610e3c5750505081016020016104cc826104d86104bc565b80546020858701810191909152909301928101610e21565b503461000e57602060031936011261000e5773ffffffffffffffffffffffffffffffffffffffff80610e846105be565b168015610ee25760008091600454925b8381108015610ed757610eb0575b610eab90611b7a565b610e94565b84610eba82611b96565b50168203610ea25791610ecf610eab91611b7a565b929050610ea2565b604051848152602090f35b608460405162461bcd60e51b815260206004820152602d60248201527f4552433732315073693a2062616c616e636520717565727920666f722074686560448201527f207a65726f2061646472657373000000000000000000000000000000000000006064820152fd5b503461000e5760008060031936011261057e576008547fffffffffffffffffffffffff000000000000000000000000000000000000000073ffffffffffffffffffffffffffffffffffffffff821691610fa6338414611a71565b1660085581604051917f8be0079c531659141344cd1fd0a4f28419497f9722a3daafe3b4186f6b6457e08284a3f35b503461000e57600060031936011261000e576020600b54604051908152f35b503461000e57604060031936011261000e5761100e6105be565b6024359073ffffffffffffffffffffffffffffffffffffffff9061103782600854163314611a71565b6102ee83116110f0576110a2916040519161105183610bbf565b1690818152602062ffffff851691015273ffffffffffffffffffffffffffffffffffffffff167fffffffffffffffffffffffff00000000000000000000000000000000000000006007541617600755565b7fffffffffffffffffff000000ffffffffffffffffffffffffffffffffffffffff76ffffff00000000000000000000000000000000000000006007549260a01b169116176007556000604051f35b60046040517ffbbd0190000000000000000000000000000000000000000000000000000000008152fd5b503461000e57600060031936011261000e57602073ffffffffffffffffffffffffffffffffffffffff60085416604051908152f35b503461000e57602060031936011261000e5761118473ffffffffffffffffffffffffffffffffffffffff600854163314611a71565b600435600d55005b503461000e5760008060031936011261057e5760405190806002546111b081610b3c565b8085529160019180831690811561053657506001146111d9576104d8856104cc81870382610c05565b9250600283527f405787fa12a823e0f2b7631cc41b3ba8828b3321ca811111fa75cd3aa3bb5ace5b82841061121c5750505081016020016104cc826104d86104bc565b80546020858701810191909152909301928101611201565b503461000e57600060031936011261000e576020600d54604051908152f35b50602060031936011261000e5760048035611277611273600c5460ff1690565b1590565b61141d5780156113f45761128c818354611fee565b61138881116113be5750336000908152600a60205260409020546112b08282611fee565b90600a821161138757158061137a575b15611369576112d86112d3600b54611b7a565b600b55565b6112ed600d546112e784612a57565b90611b5b565b80340361132a5761066a83836113233373ffffffffffffffffffffffffffffffffffffffff16600052600a602052604060002090565b5533612ad8565b604080517f23b18f5f000000000000000000000000000000000000000000000000000000008152808601928352346020840152918291010390fd5b0390fd5b61137582600d54611b5b565b6112ed565b506107d0600b54106112c0565b506040517fe0f21e9a0000000000000000000000000000000000000000000000000000000081528084019182529081906020010390fd5b6040517f84a9ce580000000000000000000000000000000000000000000000000000000081528084019182529081906020010390fd5b506040517fad36ab86000000000000000000000000000000000000000000000000000000008152fd5b506040517f589ed34b000000000000000000000000000000000000000000000000000000008152fd5b503461000e57604060031936011261000e576114606105be565b602435801515810361000e5773ffffffffffffffffffffffffffffffffffffffff82169133831461152857816114c66114f69233600052600660205260406000209073ffffffffffffffffffffffffffffffffffffffff16600052602052604060002090565b9060ff7fffffffffffffffffffffffffffffffffffffffffffffffffffffffffffffff0083541691151516179055565b604051901515815233907f17307eab39ab6107e8899845ad3d59bd9653f200f220920489ca2b5937696c3190602090a3005b606460405162461bcd60e51b815260206004820152601c60248201527f4552433732315073693a20617070726f766520746f2063616c6c6572000000006044820152fd5b601f19601f60209267ffffffffffffffff811161158a575b01160190565b611592610b8f565b611584565b9291926115a38261156c565b916115b16040519384610c05565b82948184528183011161000e578281602093846000960137010152565b503461000e57608060031936011261000e576115e86105be565b6115f06105e1565b6064359167ffffffffffffffff831161000e573660238401121561000e5761162561066a933690602481600401359101611597565b9160443591611db8565b503461000e57602060031936011261000e5760043560045481101561170a57611659600954610b3c565b61166957506104d86104cc610c28565b6116c16116f86116a66001847ffffffffffffffffffffffffffffffffffffffffffffffffffffffffffffffffe6104d896116116fd575b01612dd6565b6116ea6040519384926116bb60208501612d16565b90612dc3565b7f2e6a736f6e000000000000000000000000000000000000000000000000000000815260050190565b03601f198101835282610c05565b6104cc565b611705611b2b565b6116a0565b60046040517f72ec2530000000000000000000000000000000000000000000000000000000008152fd5b503461000e57602060031936011261000e5773ffffffffffffffffffffffffffffffffffffffff6117636105be565b16600052600a6020526020604060002054604051908152f35b503461000e57600060031936011261000e576117b173ffffffffffffffffffffffffffffffffffffffff600854163314611a71565b600c547fffffffffffffffffffffffffffffffffffffffffffffffffffffffffffffff0060ff8083161516911617600c556000604051f35b503461000e57604060031936011261000e57602060ff61185a61180a6105be565b73ffffffffffffffffffffffffffffffffffffffff6118276105e1565b91166000526006845260406000209073ffffffffffffffffffffffffffffffffffffffff16600052602052604060002090565b54166040519015158152f35b503461000e57602060031936011261000e576118806105be565b73ffffffffffffffffffffffffffffffffffffffff6118a481600854163314611a71565b8116156118b45761066a90611abc565b608460405162461bcd60e51b815260206004820152602660248201527f4f776e61626c653a206e6577206f776e657220697320746865207a65726f206160448201527f64647265737300000000000000000000000000000000000000000000000000006064820152fd5b503461000e5760208060031936011261000e5767ffffffffffffffff60043581811161000e573660238201121561000e57611963903690602481600401359101611597565b9161198773ffffffffffffffffffffffffffffffffffffffff600854163314611a71565b8251918211611a64575b6119a5826119a0600e54610b3c565b612c34565b80601f83116001146119dd575081926000926119d2575b50506000198260011b9260031b1c191617600e55005b0151905038806119bc565b90601f19831693611a10600e6000527fbb7b4a454dc3493923482f07822329ed19e8244eff582cc204f8554c3620c3fd90565b926000905b868210611a4c5750508360019510611a33575b505050811b01600e55005b015160001960f88460031b161c19169055388080611a28565b80600185968294968601518155019501930190611a15565b611a6c610b8f565b611991565b15611a7857565b606460405162461bcd60e51b815260206004820152602060248201527f4f776e61626c653a2063616c6c6572206973206e6f7420746865206f776e65726044820152fd5b6008549073ffffffffffffffffffffffffffffffffffffffff80911691827fffffffffffffffffffffffff0000000000000000000000000000000000000000821617600855167f8be0079c531659141344cd1fd0a4f28419497f9722a3daafe3b4186f6b6457e06000604051a3565b507f4e487b7100000000000000000000000000000000000000000000000000000000600052601160045260246000fd5b8060001904821181151516611b6e570290565b611b76611b2b565b0290565b6001906000198114611b8a570190565b611b92611b2b565b0190565b600454811015611bd157611ba99061262c565b80600052600360205273ffffffffffffffffffffffffffffffffffffffff6040600020541691565b608460405162461bcd60e51b815260206004820152602c60248201527f4552433732315073693a206f776e657220717565727920666f72206e6f6e657860448201527f697374656e7420746f6b656e00000000000000000000000000000000000000006064820152fd5b15611c4257565b608460405162461bcd60e51b815260206004820152603b60248201527f4552433732315073693a20617070726f76652063616c6c6572206973206e6f7460448201527f206f776e6572206e6f7220617070726f76656420666f7220616c6c00000000006064820152fd5b600454811015611cdd57600052600560205273ffffffffffffffffffffffffffffffffffffffff6040600020541690565b608460405162461bcd60e51b815260206004820152602f60248201527f4552433732315073693a20617070726f76656420717565727920666f72206e6f60448201527f6e6578697374656e7420746f6b656e00000000000000000000000000000000006064820152fd5b15611d4e57565b608460405162461bcd60e51b815260206004820152603460248201527f4552433732315073693a207472616e736665722063616c6c6572206973206e6f60448201527f74206f776e6572206e6f7220617070726f7665640000000000000000000000006064820152fd5b90611ddc939291611dcc6107bc8433611e4e565b611dd7838383611ffa565b6123eb565b15611de357565b60405162461bcd60e51b815260206004820152603560248201527f4552433732315073693a207472616e7366657220746f206e6f6e20455243373260448201527f31526563656976657220696d706c656d656e74657200000000000000000000006064820152608490fd5b600454821015611ee557611e6182611b96565b5073ffffffffffffffffffffffffffffffffffffffff808316908083168214948515611ecd575b5050508215611e9657505090565b60ff9250906106a0611ec89273ffffffffffffffffffffffffffffffffffffffff166000526006602052604060002090565b541690565b611eda9192939550611cac565b161491388080611e88565b608460405162461bcd60e51b815260206004820152602f60248201527f4552433732315073693a206f70657261746f7220717565727920666f72206e6f60448201527f6e6578697374656e7420746f6b656e00000000000000000000000000000000006064820152fd5b15611f5657565b608460405162461bcd60e51b815260206004820152602760248201527f4552433732315073693a207472616e7366657220746f20746865207a65726f2060448201527f61646472657373000000000000000000000000000000000000000000000000006064820152fd5b6001907ffffffffffffffffffffffffffffffffffffffffffffffffffffffffffffffffe8111611b8a570190565b81198111611b8a570190565b9061200483611b96565b9073ffffffffffffffffffffffffffffffffffffffff92839182861694859116036121d5576120f39181169461203b861515611f4f565b6120448761223f565b61204d87611fc0565b6120926112738260ff7f8000000000000000000000000000000000000000000000000000000000000000918060081c6000526000602052161c60406000205416151590565b806121ca575b61216a575b50506120b3866000526003602052604060002090565b9073ffffffffffffffffffffffffffffffffffffffff167fffffffffffffffffffffffff0000000000000000000000000000000000000000825416179055565b8303612123575b7fddf252ad1be2c89b69c2b068fc378daa952ba7f163c4a11628f55a4df523b3ef6000604051a4565b612165838060081c60005260006020527f800000000000000000000000000000000000000000000000000000000000000060ff604060002092161c8154179055565b6120fa565b6121856121c3926120b3836000526003602052604060002090565b8060081c60005260006020527f800000000000000000000000000000000000000000000000000000000000000060ff604060002092161c8154179055565b388061209d565b506004548110612098565b608460405162461bcd60e51b815260206004820152602c60248201527f4552433732315073693a207472616e73666572206f6620746f6b656e2074686160448201527f74206973206e6f74206f776e00000000000000000000000000000000000000006064820152fd5b80600052600560205260406000207fffffffffffffffffffffffff00000000000000000000000000000000000000008154169055600073ffffffffffffffffffffffffffffffffffffffff61229383611b96565b50167f8c5be1e5ebec7d5bd14f71427d1e84f3dd0314c0f7b2291e5b200ac8c7c3b92582604051a4565b81600052600560205261230f8160406000209073ffffffffffffffffffffffffffffffffffffffff167fffffffffffffffffffffffff0000000000000000000000000000000000000000825416179055565b61231882611b96565b509073ffffffffffffffffffffffffffffffffffffffff80911691167f8c5be1e5ebec7d5bd14f71427d1e84f3dd0314c0f7b2291e5b200ac8c7c3b9256000604051a4565b9081602091031261000e575161047c816102b0565b909261047c949360809373ffffffffffffffffffffffffffffffffffffffff809216845216602083015260408201528160608201520190610446565b506040513d6000823e3d90fd5b3d156123e6573d906123cc8261156c565b916123da6040519384610c05565b82523d6000602084013e565b606090565b919290803b156125b25790929160019081948285935b61240f575b50505050505090565b61241c8697989596611fc0565b8410156125a9576040958651977f150b7a0200000000000000000000000000000000000000000000000000000000998a8a5260209a8b60049b808d898c8c339385019361246894612372565b03908281600093818573ffffffffffffffffffffffffffffffffffffffff8c165af191928261257a575b5050612523578c8c8c6124a36123bb565b8051938461251d5761136584845191829162461bcd60e51b8352820160809060208152603560208201527f4552433732315073693a207472616e7366657220746f206e6f6e20455243373260408201527f31526563656976657220696d706c656d656e746572000000000000000000000060608201520190565b84925001fd5b91939699509194979a50612542939699508261254e575b505096611b7a565b92809592949195612401565b7fffffffff0000000000000000000000000000000000000000000000000000000016149050388061253a565b61259a929350803d106125a2575b6125928183610c05565b81019061235d565b90388e612492565b503d612588565b84979650612406565b50505050600190565b156125c257565b608460405162461bcd60e51b815260206004820152603460248201527f4269744d6170733a205468652073657420626974206265666f7265207468652060448201527f696e64657820646f65736e27742065786973742e0000000000000000000000006064820152fd5b60089060ff81831c91168160005260006020526040600020548160ff181c80151560001461266e5761266061266691612703565b60ff1690565b9003911b1790565b5050600019905b6126808115156125bb565b01612695816000526000602052604060002090565b54806126a5575060001990612675565b6126606126b46126bd92612703565b60ff9081031690565b911b1790565b9081518110156126d4570160200190565b7f4e487b7100000000000000000000000000000000000000000000000000000000600052603260045260246000fd5b60405161270f81610be8565b7ffd1e3e5a7a8aa2b670c4ced8bbe8f0f4fc3d79a1c3cde7effb78cce6facbf9f86101008083527e01020903110a19042112290b311a3905412245134d2a550c5d32651b6d3a7560208401527f06264262237d468514804e8d2b95569d0d495ea533a966b11c886eb93bc176c960408401527f071727374353637324837e9b47af86c7155181ad4fd18ed32c9096db57d59ee360608401527f0e2e4a6a5f92a6be3498aae067ddb2eb1d5989b56fd7baf33ca0c2ee77e5caf760808401527fff0810182028303840444c545c646c7425617c847f8c949c48a4a8b087b8c0c860a08401527f16365272829aaec650acd0d28fdad4e22d6991bd97dfdcea58b4d6f29fede4f660c08401527ffe0f1f2f3f4b5b6b607b8b93a3a7b7bf357199c5abcfd9e168bcdee9b3f1ecf560e0840152820152811561000e576128826128a8917e818283848586878898a8b8c8d8e8f929395969799a9b9d9e9faaeb6bedeeff8461047c95600003160260f81c906126c3565b517fff000000000000000000000000000000000000000000000000000000000000001690565b60f81c90565b6000600454918281101561290a57600091825b8481108015612901576128dd575b6128d890611b7a565b6128c1565b928281036128ed57505050905090565b6128f96128d891611b7a565b9390506128cf565b50509392505050565b608460405162461bcd60e51b815260206004820152602560248201527f4552433732315073693a20676c6f62616c20696e646578206f7574206f66206260448201527f6f756e64730000000000000000000000000000000000000000000000000000006064820152fd5b60045491600091825b84811080156129ee57806129c3575b61299f575b61299a90611b7a565b61297d565b928281036129af57505050905090565b6129bb61299a91611b7a565b939050612991565b506129cd81611b96565b5073ffffffffffffffffffffffffffffffffffffffff83811691161461298c565b608460405162461bcd60e51b8152602060048201526024808201527f4552433732315073693a206f776e657220696e646578206f7574206f6620626f60448201527f756e6473000000000000000000000000000000000000000000000000000000006064820152fd5b6000199060018110611b8a570190565b15612a6e57565b608460405162461bcd60e51b815260206004820152602360248201527f4552433732315073693a206d696e7420746f20746865207a65726f206164647260448201527f65737300000000000000000000000000000000000000000000000000000000006064820152fd5b91600454918015612bca57612b2f73ffffffffffffffffffffffffffffffffffffffff851694612b09861515612a67565b612b1b612b168487611fee565b600455565b6120b3856000526003602052604060002090565b612b71838060081c60005260006020527f800000000000000000000000000000000000000000000000000000000000000060ff604060002092161c8154179055565b825b612b7d8285611fee565b811015612bc35790612bbb82612b7d938760007fddf252ad1be2c89b69c2b068fc378daa952ba7f163c4a11628f55a4df523b3ef81604051a4611b7a565b909150612b73565b5050915050565b608460405162461bcd60e51b815260206004820152602560248201527f4552433732315073693a207175616e74697479206d757374206265206772656160448201527f74657220300000000000000000000000000000000000000000000000000000006064820152fd5b601f8111612c40575050565b600090600e82527fbb7b4a454dc3493923482f07822329ed19e8244eff582cc204f8554c3620c3fd906020601f850160051c83019410612c9b575b601f0160051c01915b828110612c9057505050565b818155600101612c84565b9092508290612c7b565b601f8111612cb1575050565b600090600982527f6e1540171b6c0c960b71a7020d9f60077f6af931a8bbf590da0223dacf75c7af906020601f850160051c83019410612d0c575b601f0160051c01915b828110612d0157505050565b818155600101612cf5565b9092508290612cec565b60095460009291612d2682610b3c565b91600190818116908115612d925750600114612d4157505050565b909192935060096000527f6e1540171b6c0c960b71a7020d9f60077f6af931a8bbf590da0223dacf75c7af906000915b848310612d7f575050500190565b8181602092548587015201920191612d71565b7fffffffffffffffffffffffffffffffffffffffffffffffffffffffffffffff001683525050811515909102019150565b90611b9260209282815194859201610411565b8015612e9957806000908282935b612e855750612df28361156c565b92612e006040519485610c05565b80845281601f19612e108361156c565b013660208701375b612e225750505090565b612e2b90612a57565b90600a907fff00000000000000000000000000000000000000000000000000000000000000828206603081198111612e78575b0160f81b16841a612e6f84876126c3565b53049081612e18565b612e80611b2b565b612e5e565b92612e91600a91611b7a565b930480612de4565b50604051612ea681610bbf565b600181527f300000000000000000000000000000000000000000000000000000000000000060208201529056fea264697066735822122090579b80164b3cd9383ea58a57e11a890cd05bf5fe093b2536c0670ea1a10a1164736f6c634300080f0033",
          "opcodes": "PUSH1 0x40 PUSH1 0x80 DUP2 MSTORE CALLVALUE PUSH3 0x3FD JUMPI PUSH3 0x15 PUSH3 0x402 JUMP JUMPDEST SWAP1 PUSH1 0x13 DUP3 MSTORE PUSH1 0x20 SWAP2 PUSH32 0x57697368204920486164205468652053616D6500000000000000000000000000 DUP4 DUP3 ADD MSTORE PUSH3 0x4C PUSH3 0x402 JUMP JUMPDEST PUSH1 0x5 DUP1 DUP3 MSTORE PUSH5 0x5749485453 PUSH1 0xD8 SHL DUP6 DUP4 ADD MSTORE DUP3 MLOAD SWAP2 SWAP5 PUSH1 0x1 PUSH1 0x1 PUSH1 0x40 SHL SUB SWAP4 SWAP1 SWAP3 SWAP2 DUP5 DUP4 GT PUSH3 0x23E JUMPI PUSH1 0x1 SWAP3 DUP1 PUSH3 0x86 DUP6 SLOAD PUSH3 0x422 JUMP JUMPDEST SWAP4 PUSH1 0x1F SWAP5 DUP6 DUP2 GT PUSH3 0x3C2 JUMPI JUMPDEST POP DUP7 SWAP1 DUP6 DUP4 GT PUSH1 0x1 EQ PUSH3 0x35A JUMPI PUSH1 0x0 SWAP3 PUSH3 0x34E JUMPI JUMPDEST POP POP PUSH1 0x0 NOT PUSH1 0x3 DUP4 SWAP1 SHL SHR NOT AND SWAP1 DUP5 SHL OR DUP4 SSTORE JUMPDEST DUP7 MLOAD SWAP7 DUP6 DUP9 GT PUSH3 0x23E JUMPI PUSH1 0x2 SWAP1 PUSH3 0xD8 DUP3 SLOAD PUSH3 0x422 JUMP JUMPDEST DUP10 DUP6 DUP3 GT PUSH3 0x312 JUMPI JUMPDEST POP POP DUP6 SWAP1 DUP5 DUP11 GT PUSH1 0x1 EQ PUSH3 0x286 JUMPI SWAP9 DUP1 SWAP2 PUSH32 0x556446486F4E32734D43354C396448356D785F41365366493553667976593000 SWAP8 SWAP9 SWAP10 SWAP11 PUSH1 0x0 SWAP3 PUSH3 0x27A JUMPI JUMPDEST POP POP PUSH1 0x0 NOT PUSH1 0x3 DUP4 SWAP1 SHL SHR NOT AND SWAP1 DUP6 SHL OR DUP2 SSTORE JUMPDEST PUSH1 0x8 DUP1 SLOAD CALLER PUSH1 0x1 PUSH1 0x1 PUSH1 0xA0 SHL SUB NOT DUP3 AND DUP2 OR SWAP1 SWAP3 SSTORE DUP10 MLOAD PUSH1 0x1 PUSH1 0x1 PUSH1 0xA0 SHL SUB SWAP1 SWAP2 AND SWAP1 PUSH32 0x8BE0079C531659141344CD1FD0A4F28419497F9722A3DAAFE3B4186F6B6457E0 SWAP1 PUSH1 0x0 SWAP1 LOG3 PUSH7 0x1C110215B9C000 PUSH1 0xD SSTORE PUSH3 0x197 PUSH1 0xE SLOAD PUSH3 0x422 JUMP JUMPDEST SWAP2 DUP4 DUP4 GT PUSH3 0x254 JUMPI JUMPDEST POP POP POP POP PUSH1 0x7F PUSH1 0xE SSTORE PUSH1 0xE PUSH1 0x0 MSTORE DUP3 PUSH1 0x0 KECCAK256 PUSH32 0x68747470733A2F2F617277656176652E6E65742F5464786567424D4F73314774 DUP2 SSTORE ADD SSTORE DUP3 MLOAD DUP4 DUP2 ADD SWAP3 DUP2 DUP5 LT SWAP1 DUP5 GT OR PUSH3 0x23E JUMPI SWAP2 DUP4 MSTORE PUSH20 0xC703E1C25CEAB92F4A88BEB51F6C03EF72055AA3 DUP3 MSTORE PUSH1 0xFA SWAP2 ADD MSTORE PUSH1 0x7 DUP1 SLOAD PUSH1 0x1 PUSH1 0x1 PUSH1 0xB8 SHL SUB NOT AND PUSH21 0xFAC703E1C25CEAB92F4A88BEB51F6C03EF72055AA3 OR SWAP1 SSTORE MLOAD PUSH2 0x2F09 SWAP1 DUP2 PUSH3 0x479 DUP3 CODECOPY RETURN JUMPDEST PUSH4 0x4E487B71 PUSH1 0xE0 SHL PUSH1 0x0 MSTORE PUSH1 0x41 PUSH1 0x4 MSTORE PUSH1 0x24 PUSH1 0x0 REVERT JUMPDEST PUSH3 0x270 SWAP4 PUSH1 0xE PUSH1 0x0 MSTORE DUP8 PUSH1 0x0 KECCAK256 SWAP4 ADD SWAP1 SHR DUP3 ADD SWAP2 ADD PUSH3 0x45F JUMP JUMPDEST CODESIZE DUP1 DUP1 DUP1 PUSH3 0x1A1 JUMP JUMPDEST ADD MLOAD SWAP1 POP CODESIZE DUP1 PUSH3 0x122 JUMP JUMPDEST SWAP1 PUSH1 0x1F NOT DUP11 AND SWAP2 DUP4 PUSH1 0x0 MSTORE DUP8 PUSH1 0x0 KECCAK256 SWAP3 PUSH1 0x0 JUMPDEST DUP2 DUP2 LT PUSH3 0x2FC JUMPI POP SWAP2 DUP8 SWAP4 SWAP2 DUP13 PUSH32 0x556446486F4E32734D43354C396448356D785F41365366493553667976593000 SWAP11 SWAP12 SWAP13 SWAP14 SWAP5 LT PUSH3 0x2E2 JUMPI JUMPDEST POP POP POP DUP2 SHL ADD DUP2 SSTORE PUSH3 0x136 JUMP JUMPDEST ADD MLOAD PUSH1 0x0 NOT PUSH1 0xF8 DUP5 PUSH1 0x3 SHL AND SHR NOT AND SWAP1 SSTORE CODESIZE DUP1 DUP1 PUSH3 0x2D4 JUMP JUMPDEST DUP3 DUP5 ADD MLOAD DUP6 SSTORE SWAP4 DUP9 ADD SWAP4 SWAP3 DUP10 ADD SWAP3 DUP10 ADD PUSH3 0x299 JUMP JUMPDEST PUSH3 0x33C SWAP2 DUP5 PUSH1 0x0 MSTORE DUP7 DUP10 PUSH1 0x0 KECCAK256 SWAP2 DUP11 DUP3 DUP6 ADD DUP10 SHR DUP5 ADD SWAP5 LT PUSH3 0x344 JUMPI JUMPDEST ADD DUP7 SHR ADD SWAP1 PUSH3 0x45F JUMP JUMPDEST CODESIZE DUP10 PUSH3 0xE2 JUMP JUMPDEST SWAP3 POP DUP2 SWAP3 PUSH3 0x331 JUMP JUMPDEST ADD MLOAD SWAP1 POP CODESIZE DUP1 PUSH3 0xAA JUMP JUMPDEST SWAP1 DUP7 SWAP4 POP PUSH1 0x1F NOT DUP4 AND SWAP2 DUP5 PUSH1 0x0 MSTORE DUP9 PUSH1 0x0 KECCAK256 SWAP3 PUSH1 0x0 JUMPDEST DUP11 DUP3 DUP3 LT PUSH3 0x3AB JUMPI POP POP DUP5 GT PUSH3 0x391 JUMPI JUMPDEST POP POP POP DUP2 SHL ADD DUP4 SSTORE PUSH3 0xBE JUMP JUMPDEST ADD MLOAD PUSH1 0x0 NOT PUSH1 0xF8 DUP5 PUSH1 0x3 SHL AND SHR NOT AND SWAP1 SSTORE CODESIZE DUP1 DUP1 PUSH3 0x383 JUMP JUMPDEST DUP4 DUP6 ADD MLOAD DUP7 SSTORE DUP11 SWAP8 SWAP1 SWAP6 ADD SWAP5 SWAP4 DUP5 ADD SWAP4 ADD PUSH3 0x370 JUMP JUMPDEST PUSH3 0x3EC SWAP1 DUP8 PUSH1 0x0 MSTORE DUP9 PUSH1 0x0 KECCAK256 DUP8 DUP1 DUP7 ADD DUP9 SHR DUP3 ADD SWAP3 DUP12 DUP8 LT PUSH3 0x3F3 JUMPI JUMPDEST ADD DUP8 SHR ADD SWAP1 PUSH3 0x45F JUMP JUMPDEST CODESIZE PUSH3 0x93 JUMP JUMPDEST SWAP3 POP DUP2 SWAP3 PUSH3 0x3E1 JUMP JUMPDEST PUSH1 0x0 DUP1 REVERT JUMPDEST PUSH1 0x40 DUP1 MLOAD SWAP2 SWAP1 DUP3 ADD PUSH1 0x1 PUSH1 0x1 PUSH1 0x40 SHL SUB DUP2 GT DUP4 DUP3 LT OR PUSH3 0x23E JUMPI PUSH1 0x40 MSTORE JUMP JUMPDEST SWAP1 PUSH1 0x1 DUP3 DUP2 SHR SWAP3 AND DUP1 ISZERO PUSH3 0x454 JUMPI JUMPDEST PUSH1 0x20 DUP4 LT EQ PUSH3 0x43E JUMPI JUMP JUMPDEST PUSH4 0x4E487B71 PUSH1 0xE0 SHL PUSH1 0x0 MSTORE PUSH1 0x22 PUSH1 0x4 MSTORE PUSH1 0x24 PUSH1 0x0 REVERT JUMPDEST SWAP2 PUSH1 0x7F AND SWAP2 PUSH3 0x432 JUMP JUMPDEST DUP2 DUP2 LT PUSH3 0x46B JUMPI POP POP JUMP JUMPDEST PUSH1 0x0 DUP2 SSTORE PUSH1 0x1 ADD PUSH3 0x45F JUMP INVALID PUSH1 0x80 PUSH1 0x40 MSTORE PUSH1 0x4 CALLDATASIZE LT ISZERO PUSH2 0x13 JUMPI JUMPDEST PUSH1 0x0 DUP1 REVERT JUMPDEST PUSH1 0x0 CALLDATALOAD PUSH1 0xE0 SHR DUP1 PUSH4 0x1FFC9A7 EQ PUSH2 0x2A7 JUMPI DUP1 PUSH4 0x6FDDE03 EQ PUSH2 0x29E JUMPI DUP1 PUSH4 0x81812FC EQ PUSH2 0x295 JUMPI DUP1 PUSH4 0x95EA7B3 EQ PUSH2 0x28C JUMPI DUP1 PUSH4 0x18160DDD EQ PUSH2 0x283 JUMPI DUP1 PUSH4 0x23B872DD EQ PUSH2 0x27A JUMPI DUP1 PUSH4 0x24BBD049 EQ PUSH2 0x271 JUMPI DUP1 PUSH4 0x2A55205A EQ PUSH2 0x268 JUMPI DUP1 PUSH4 0x2F745C59 EQ PUSH2 0x25F JUMPI DUP1 PUSH4 0x3CCFD60B EQ PUSH2 0x256 JUMPI DUP1 PUSH4 0x42842E0E EQ PUSH2 0x24D JUMPI DUP1 PUSH4 0x4F6CCCE7 EQ PUSH2 0x244 JUMPI DUP1 PUSH4 0x55F804B3 EQ PUSH2 0x23B JUMPI DUP1 PUSH4 0x6352211E EQ PUSH2 0x232 JUMPI DUP1 PUSH4 0x6C0360EB EQ PUSH2 0x229 JUMPI DUP1 PUSH4 0x7035BF18 EQ PUSH2 0x220 JUMPI DUP1 PUSH4 0x70A08231 EQ PUSH2 0x217 JUMPI DUP1 PUSH4 0x715018A6 EQ PUSH2 0x20E JUMPI DUP1 PUSH4 0x80B17335 EQ PUSH2 0x205 JUMPI DUP1 PUSH4 0x8C7EA24B EQ PUSH2 0x1FC JUMPI DUP1 PUSH4 0x8DA5CB5B EQ PUSH2 0x1F3 JUMPI DUP1 PUSH4 0x91B7F5ED EQ PUSH2 0x1EA JUMPI DUP1 PUSH4 0x95D89B41 EQ PUSH2 0x1E1 JUMPI DUP1 PUSH4 0xA035B1FE EQ PUSH2 0x1D8 JUMPI DUP1 PUSH4 0xA0712D68 EQ PUSH2 0x1CF JUMPI DUP1 PUSH4 0xA22CB465 EQ PUSH2 0x1C6 JUMPI DUP1 PUSH4 0xB88D4FDE EQ PUSH2 0x1BD JUMPI DUP1 PUSH4 0xC87B56DD EQ PUSH2 0x1B4 JUMPI DUP1 PUSH4 0xC884EF83 EQ PUSH2 0x1AB JUMPI DUP1 PUSH4 0xD3DD5FE0 EQ PUSH2 0x1A2 JUMPI DUP1 PUSH4 0xE985E9C5 EQ PUSH2 0x199 JUMPI DUP1 PUSH4 0xF2FDE38B EQ PUSH2 0x190 JUMPI PUSH4 0xFE2C7FEE EQ PUSH2 0x188 JUMPI PUSH1 0x0 DUP1 REVERT JUMPDEST PUSH2 0xE PUSH2 0x191E JUMP JUMPDEST POP PUSH2 0xE PUSH2 0x1866 JUMP JUMPDEST POP PUSH2 0xE PUSH2 0x17E9 JUMP JUMPDEST POP PUSH2 0xE PUSH2 0x177C JUMP JUMPDEST POP PUSH2 0xE PUSH2 0x1734 JUMP JUMPDEST POP PUSH2 0xE PUSH2 0x162F JUMP JUMPDEST POP PUSH2 0xE PUSH2 0x15CE JUMP JUMPDEST POP PUSH2 0xE PUSH2 0x1446 JUMP JUMPDEST POP PUSH2 0xE PUSH2 0x1253 JUMP JUMPDEST POP PUSH2 0xE PUSH2 0x1234 JUMP JUMPDEST POP PUSH2 0xE PUSH2 0x118C JUMP JUMPDEST POP PUSH2 0xE PUSH2 0x114F JUMP JUMPDEST POP PUSH2 0xE PUSH2 0x111A JUMP JUMPDEST POP PUSH2 0xE PUSH2 0xFF4 JUMP JUMPDEST POP PUSH2 0xE PUSH2 0xFD5 JUMP JUMPDEST POP PUSH2 0xE PUSH2 0xF4C JUMP JUMPDEST POP PUSH2 0xE PUSH2 0xE54 JUMP JUMPDEST POP PUSH2 0xE PUSH2 0xDAC JUMP JUMPDEST POP PUSH2 0xE PUSH2 0xD04 JUMP JUMPDEST POP PUSH2 0xE PUSH2 0xAFE JUMP JUMPDEST POP PUSH2 0xE PUSH2 0x9B2 JUMP JUMPDEST POP PUSH2 0xE PUSH2 0x993 JUMP JUMPDEST POP PUSH2 0xE PUSH2 0x94B JUMP JUMPDEST POP PUSH2 0xE PUSH2 0x882 JUMP JUMPDEST POP PUSH2 0xE PUSH2 0x852 JUMP JUMPDEST POP PUSH2 0xE PUSH2 0x7EA JUMP JUMPDEST POP PUSH2 0xE PUSH2 0x7C6 JUMP JUMPDEST POP PUSH2 0xE PUSH2 0x79C JUMP JUMPDEST POP PUSH2 0xE PUSH2 0x73B JUMP JUMPDEST POP PUSH2 0xE PUSH2 0x604 JUMP JUMPDEST POP PUSH2 0xE PUSH2 0x581 JUMP JUMPDEST POP PUSH2 0xE PUSH2 0x47F JUMP JUMPDEST POP PUSH2 0xE PUSH2 0x2DA JUMP JUMPDEST PUSH32 0xFFFFFFFF00000000000000000000000000000000000000000000000000000000 DUP2 AND SUB PUSH2 0xE JUMPI JUMP JUMPDEST POP CALLVALUE PUSH2 0xE JUMPI PUSH1 0x20 PUSH1 0x3 NOT CALLDATASIZE ADD SLT PUSH2 0xE JUMPI PUSH1 0x20 PUSH32 0xFFFFFFFF00000000000000000000000000000000000000000000000000000000 PUSH1 0x4 CALLDATALOAD PUSH2 0x31B DUP2 PUSH2 0x2B0 JUMP JUMPDEST AND PUSH32 0x2A55205A00000000000000000000000000000000000000000000000000000000 DUP2 EQ SWAP1 DUP2 ISZERO PUSH2 0x352 JUMPI JUMPDEST POP PUSH1 0x40 MLOAD SWAP1 ISZERO ISZERO DUP2 MSTORE RETURN JUMPDEST PUSH32 0x80AC58CD00000000000000000000000000000000000000000000000000000000 DUP2 EQ SWAP2 POP DUP2 ISZERO PUSH2 0x3E7 JUMPI JUMPDEST DUP2 ISZERO PUSH2 0x3BD JUMPI JUMPDEST DUP2 ISZERO PUSH2 0x393 JUMPI JUMPDEST POP CODESIZE PUSH2 0x347 JUMP JUMPDEST PUSH32 0x1FFC9A700000000000000000000000000000000000000000000000000000000 SWAP2 POP EQ CODESIZE PUSH2 0x38C JUMP JUMPDEST PUSH32 0x780E9D6300000000000000000000000000000000000000000000000000000000 DUP2 EQ SWAP2 POP PUSH2 0x385 JUMP JUMPDEST PUSH32 0x5B5E139F00000000000000000000000000000000000000000000000000000000 DUP2 EQ SWAP2 POP PUSH2 0x37E JUMP JUMPDEST SWAP2 DUP1 SWAP2 SWAP3 PUSH1 0x0 SWAP1 JUMPDEST DUP3 DUP3 LT PUSH2 0x431 JUMPI POP GT PUSH2 0x42A JUMPI POP POP JUMP JUMPDEST PUSH1 0x0 SWAP2 ADD MSTORE JUMP JUMPDEST SWAP2 POP DUP1 PUSH1 0x20 SWAP2 DUP4 ADD MLOAD DUP2 DUP7 ADD MSTORE ADD DUP3 SWAP2 PUSH2 0x419 JUMP JUMPDEST SWAP1 PUSH1 0x1F NOT PUSH1 0x1F PUSH1 0x20 SWAP4 PUSH2 0x464 DUP2 MLOAD DUP1 SWAP3 DUP2 DUP8 MSTORE DUP8 DUP1 DUP9 ADD SWAP2 ADD PUSH2 0x411 JUMP JUMPDEST ADD AND ADD ADD SWAP1 JUMP JUMPDEST SWAP1 PUSH1 0x20 PUSH2 0x47C SWAP3 DUP2 DUP2 MSTORE ADD SWAP1 PUSH2 0x446 JUMP JUMPDEST SWAP1 JUMP JUMPDEST POP CALLVALUE PUSH2 0xE JUMPI PUSH1 0x0 DUP1 PUSH1 0x3 NOT CALLDATASIZE ADD SLT PUSH2 0x57E JUMPI PUSH1 0x40 MLOAD SWAP1 DUP1 PUSH1 0x1 DUP1 SLOAD SWAP2 PUSH2 0x4A5 DUP4 PUSH2 0xB3C JUMP JUMPDEST DUP1 DUP7 MSTORE SWAP3 DUP3 DUP2 AND SWAP1 DUP2 ISZERO PUSH2 0x536 JUMPI POP PUSH1 0x1 EQ PUSH2 0x4DC JUMPI JUMPDEST PUSH2 0x4D8 DUP6 PUSH2 0x4CC DUP2 DUP8 SUB DUP3 PUSH2 0xC05 JUMP JUMPDEST PUSH1 0x40 MLOAD SWAP2 DUP3 SWAP2 DUP3 PUSH2 0x46B JUMP JUMPDEST SUB SWAP1 RETURN JUMPDEST SWAP3 POP DUP1 DUP4 MSTORE PUSH32 0xB10E2D527612073B26EECDFD717E6A320CF44B4AFAC2B0732D9FCBE2B7FA0CF6 JUMPDEST DUP3 DUP5 LT PUSH2 0x51E JUMPI POP POP POP DUP2 ADD PUSH1 0x20 ADD PUSH2 0x4CC DUP3 PUSH2 0x4D8 PUSH2 0x4BC JUMP JUMPDEST DUP1 SLOAD PUSH1 0x20 DUP6 DUP8 ADD DUP2 ADD SWAP2 SWAP1 SWAP2 MSTORE SWAP1 SWAP4 ADD SWAP3 DUP2 ADD PUSH2 0x503 JUMP JUMPDEST DUP7 SWAP6 POP PUSH2 0x4D8 SWAP7 SWAP4 POP PUSH1 0x20 SWAP3 POP PUSH2 0x4CC SWAP5 SWAP2 POP PUSH32 0xFFFFFFFFFFFFFFFFFFFFFFFFFFFFFFFFFFFFFFFFFFFFFFFFFFFFFFFFFFFFFF00 AND DUP3 DUP5 ADD MSTORE ISZERO ISZERO PUSH1 0x5 SHL DUP3 ADD ADD SWAP3 SWAP4 PUSH2 0x4BC JUMP JUMPDEST DUP1 REVERT JUMPDEST POP CALLVALUE PUSH2 0xE JUMPI PUSH1 0x20 PUSH1 0x3 NOT CALLDATASIZE ADD SLT PUSH2 0xE JUMPI PUSH1 0x20 PUSH2 0x5A0 PUSH1 0x4 CALLDATALOAD PUSH2 0x1CAC JUMP JUMPDEST PUSH20 0xFFFFFFFFFFFFFFFFFFFFFFFFFFFFFFFFFFFFFFFF PUSH1 0x40 MLOAD SWAP2 AND DUP2 MSTORE RETURN JUMPDEST PUSH1 0x4 CALLDATALOAD SWAP1 PUSH20 0xFFFFFFFFFFFFFFFFFFFFFFFFFFFFFFFFFFFFFFFF DUP3 AND DUP3 SUB PUSH2 0xE JUMPI JUMP JUMPDEST PUSH1 0x24 CALLDATALOAD SWAP1 PUSH20 0xFFFFFFFFFFFFFFFFFFFFFFFFFFFFFFFFFFFFFFFF DUP3 AND DUP3 SUB PUSH2 0xE JUMPI JUMP JUMPDEST POP CALLVALUE PUSH2 0xE JUMPI PUSH1 0x40 PUSH1 0x3 NOT CALLDATASIZE ADD SLT PUSH2 0xE JUMPI PUSH2 0x61E PUSH2 0x5BE JUMP JUMPDEST PUSH1 0x24 CALLDATALOAD PUSH2 0x62A DUP2 PUSH2 0x1B96 JUMP JUMPDEST POP SWAP2 PUSH20 0xFFFFFFFFFFFFFFFFFFFFFFFFFFFFFFFFFFFFFFFF DUP1 DUP5 AND DUP1 SWAP2 DUP4 AND EQ PUSH2 0x6D2 JUMPI PUSH2 0x66A SWAP4 PUSH2 0x665 SWAP2 CALLER EQ SWAP1 DUP2 ISZERO PUSH2 0x66C JUMPI JUMPDEST POP PUSH2 0x1C3B JUMP JUMPDEST PUSH2 0x22BD JUMP JUMPDEST STOP JUMPDEST PUSH2 0x6CC SWAP2 POP PUSH2 0x6C5 SWAP1 PUSH2 0x6A0 CALLER SWAP2 PUSH20 0xFFFFFFFFFFFFFFFFFFFFFFFFFFFFFFFFFFFFFFFF AND PUSH1 0x0 MSTORE PUSH1 0x6 PUSH1 0x20 MSTORE PUSH1 0x40 PUSH1 0x0 KECCAK256 SWAP1 JUMP JUMPDEST SWAP1 PUSH20 0xFFFFFFFFFFFFFFFFFFFFFFFFFFFFFFFFFFFFFFFF AND PUSH1 0x0 MSTORE PUSH1 0x20 MSTORE PUSH1 0x40 PUSH1 0x0 KECCAK256 SWAP1 JUMP JUMPDEST SLOAD PUSH1 0xFF AND SWAP1 JUMP JUMPDEST CODESIZE PUSH2 0x65F JUMP JUMPDEST PUSH1 0x84 PUSH1 0x40 MLOAD PUSH3 0x461BCD PUSH1 0xE5 SHL DUP2 MSTORE PUSH1 0x20 PUSH1 0x4 DUP3 ADD MSTORE PUSH1 0x24 DUP1 DUP3 ADD MSTORE PUSH32 0x4552433732315073693A20617070726F76616C20746F2063757272656E74206F PUSH1 0x44 DUP3 ADD MSTORE PUSH32 0x776E657200000000000000000000000000000000000000000000000000000000 PUSH1 0x64 DUP3 ADD MSTORE REVERT JUMPDEST POP CALLVALUE PUSH2 0xE JUMPI PUSH1 0x0 PUSH1 0x3 NOT CALLDATASIZE ADD SLT PUSH2 0xE JUMPI PUSH1 0x20 PUSH1 0x4 SLOAD PUSH1 0x40 MLOAD SWAP1 DUP2 MSTORE RETURN JUMPDEST PUSH1 0x3 NOT PUSH1 0x60 SWAP2 ADD SLT PUSH2 0xE JUMPI PUSH20 0xFFFFFFFFFFFFFFFFFFFFFFFFFFFFFFFFFFFFFFFF SWAP1 PUSH1 0x4 CALLDATALOAD DUP3 DUP2 AND DUP2 SUB PUSH2 0xE JUMPI SWAP2 PUSH1 0x24 CALLDATALOAD SWAP1 DUP2 AND DUP2 SUB PUSH2 0xE JUMPI SWAP1 PUSH1 0x44 CALLDATALOAD SWAP1 JUMP JUMPDEST POP CALLVALUE PUSH2 0xE JUMPI PUSH2 0x66A PUSH2 0x7AE CALLDATASIZE PUSH2 0x75A JUMP JUMPDEST SWAP2 PUSH2 0x7C1 PUSH2 0x7BC DUP5 CALLER PUSH2 0x1E4E JUMP JUMPDEST PUSH2 0x1D47 JUMP JUMPDEST PUSH2 0x1FFA JUMP JUMPDEST POP CALLVALUE PUSH2 0xE JUMPI PUSH1 0x0 PUSH1 0x3 NOT CALLDATASIZE ADD SLT PUSH2 0xE JUMPI PUSH1 0x20 PUSH1 0xFF PUSH1 0xC SLOAD AND PUSH1 0x40 MLOAD SWAP1 ISZERO ISZERO DUP2 MSTORE RETURN JUMPDEST POP CALLVALUE PUSH2 0xE JUMPI PUSH1 0x40 PUSH1 0x3 NOT CALLDATASIZE ADD SLT PUSH2 0xE JUMPI PUSH1 0x40 DUP1 MLOAD PUSH2 0x809 DUP2 PUSH2 0xBBF JUMP JUMPDEST PUSH2 0x2710 PUSH2 0x845 PUSH1 0x20 PUSH1 0x7 SLOAD SWAP4 PUSH3 0xFFFFFF PUSH20 0xFFFFFFFFFFFFFFFFFFFFFFFFFFFFFFFFFFFFFFFF DUP7 AND SWAP6 DUP7 DUP4 MSTORE PUSH1 0xA0 SHR AND SWAP2 DUP3 SWAP2 ADD MSTORE PUSH1 0x24 CALLDATALOAD PUSH2 0x1B5B JUMP JUMPDEST DIV DUP3 MLOAD SWAP2 DUP3 MSTORE PUSH1 0x20 DUP3 ADD MSTORE RETURN JUMPDEST POP CALLVALUE PUSH2 0xE JUMPI PUSH1 0x40 PUSH1 0x3 NOT CALLDATASIZE ADD SLT PUSH2 0xE JUMPI PUSH1 0x20 PUSH2 0x87A PUSH2 0x871 PUSH2 0x5BE JUMP JUMPDEST PUSH1 0x24 CALLDATALOAD SWAP1 PUSH2 0x2974 JUMP JUMPDEST PUSH1 0x40 MLOAD SWAP1 DUP2 MSTORE RETURN JUMPDEST POP CALLVALUE PUSH2 0xE JUMPI PUSH1 0x0 DUP1 PUSH1 0x3 NOT CALLDATASIZE ADD SLT PUSH2 0x57E JUMPI DUP1 DUP1 DUP1 DUP1 PUSH2 0x90A PUSH20 0xFFFFFFFFFFFFFFFFFFFFFFFFFFFFFFFFFFFFFFFF PUSH2 0x8C0 DUP2 PUSH1 0x8 SLOAD AND CALLER EQ PUSH2 0x1A71 JUMP JUMPDEST DUP3 DUP1 DUP1 DUP1 PUSH1 0xA SELFBALANCE DIV DUP2 DUP2 ISZERO PUSH2 0x942 JUMPI JUMPDEST PUSH20 0xDB2DA28BE4D1BF9B1A988643D0A82033CD7B011C SWAP1 CALL ISZERO PUSH2 0x935 JUMPI JUMPDEST PUSH1 0x8 SLOAD AND PUSH20 0xFFFFFFFFFFFFFFFFFFFFFFFFFFFFFFFFFFFFFFFF AND SWAP1 JUMP JUMPDEST SELFBALANCE SWAP1 DUP3 DUP3 ISZERO PUSH2 0x92C JUMPI JUMPDEST CALL ISZERO PUSH2 0x91F JUMPI PUSH1 0x40 MLOAD RETURN JUMPDEST PUSH2 0x927 PUSH2 0x23AE JUMP JUMPDEST PUSH1 0x40 MLOAD RETURN JUMPDEST POP PUSH2 0x8FC PUSH2 0x914 JUMP JUMPDEST PUSH2 0x93D PUSH2 0x23AE JUMP JUMPDEST PUSH2 0x8ED JUMP JUMPDEST POP PUSH2 0x8FC PUSH2 0x8D0 JUMP JUMPDEST POP CALLVALUE PUSH2 0xE JUMPI PUSH2 0x66A PUSH2 0x95D CALLDATASIZE PUSH2 0x75A JUMP JUMPDEST SWAP1 PUSH1 0x40 MLOAD SWAP3 PUSH1 0x20 DUP5 ADD DUP5 DUP2 LT PUSH8 0xFFFFFFFFFFFFFFFF DUP3 GT OR PUSH2 0x986 JUMPI JUMPDEST PUSH1 0x40 MSTORE PUSH1 0x0 DUP5 MSTORE PUSH2 0x1DB8 JUMP JUMPDEST PUSH2 0x98E PUSH2 0xB8F JUMP JUMPDEST PUSH2 0x97A JUMP JUMPDEST POP CALLVALUE PUSH2 0xE JUMPI PUSH1 0x20 PUSH1 0x3 NOT CALLDATASIZE ADD SLT PUSH2 0xE JUMPI PUSH1 0x20 PUSH2 0x87A PUSH1 0x4 CALLDATALOAD PUSH2 0x28AE JUMP JUMPDEST POP CALLVALUE PUSH2 0xE JUMPI PUSH1 0x20 DUP1 PUSH1 0x3 NOT CALLDATASIZE ADD SLT PUSH2 0xE JUMPI PUSH8 0xFFFFFFFFFFFFFFFF PUSH1 0x4 CALLDATALOAD DUP2 DUP2 GT PUSH2 0xE JUMPI CALLDATASIZE PUSH1 0x23 DUP3 ADD SLT ISZERO PUSH2 0xE JUMPI DUP1 PUSH1 0x4 ADD CALLDATALOAD SWAP2 DUP3 GT PUSH2 0xE JUMPI PUSH1 0x24 SWAP1 CALLDATASIZE DUP3 DUP5 DUP4 ADD ADD GT PUSH2 0xE JUMPI PUSH2 0xA20 PUSH20 0xFFFFFFFFFFFFFFFFFFFFFFFFFFFFFFFFFFFFFFFF PUSH1 0x8 SLOAD AND CALLER EQ PUSH2 0x1A71 JUMP JUMPDEST PUSH2 0xA34 DUP4 PUSH2 0xA2F PUSH1 0x9 SLOAD PUSH2 0xB3C JUMP JUMPDEST PUSH2 0x2CA5 JUMP JUMPDEST PUSH1 0x0 SWAP4 PUSH1 0x1F DUP5 GT PUSH1 0x1 EQ PUSH2 0xA72 JUMPI POP SWAP3 DUP3 SWAP4 PUSH1 0x0 SWAP4 PUSH2 0xA65 JUMPI JUMPDEST POP POP POP PUSH1 0x0 NOT DUP3 PUSH1 0x1 SHL SWAP3 PUSH1 0x3 SHL SHR NOT AND OR PUSH1 0x9 SSTORE STOP JUMPDEST ADD ADD CALLDATALOAD SWAP1 POP CODESIZE DUP1 DUP1 PUSH2 0xA4E JUMP JUMPDEST SWAP2 PUSH1 0x1F NOT DUP5 AND SWAP5 PUSH2 0xAA5 PUSH1 0x9 PUSH1 0x0 MSTORE PUSH32 0x6E1540171B6C0C960B71A7020D9F60077F6AF931A8BBF590DA0223DACF75C7AF SWAP1 JUMP JUMPDEST SWAP4 DUP2 SWAP1 JUMPDEST DUP8 DUP3 LT PUSH2 0xAE4 JUMPI POP POP DUP5 PUSH1 0x1 SWAP7 LT PUSH2 0xAC8 JUMPI JUMPDEST POP POP POP POP DUP2 SHL ADD PUSH1 0x9 SSTORE STOP JUMPDEST PUSH1 0x0 NOT PUSH1 0xF8 DUP7 PUSH1 0x3 SHL AND SHR NOT SWAP3 ADD ADD CALLDATALOAD AND SWAP1 SSTORE CODESIZE DUP1 DUP1 DUP1 PUSH2 0xABC JUMP JUMPDEST DUP1 PUSH1 0x1 DUP5 SWAP8 DUP7 DUP4 SWAP6 SWAP7 DUP10 ADD ADD CALLDATALOAD DUP2 SSTORE ADD SWAP7 ADD SWAP3 ADD SWAP1 PUSH2 0xAA9 JUMP JUMPDEST POP CALLVALUE PUSH2 0xE JUMPI PUSH1 0x20 PUSH1 0x3 NOT CALLDATASIZE ADD SLT PUSH2 0xE JUMPI PUSH1 0x20 PUSH2 0xB1D PUSH1 0x4 CALLDATALOAD PUSH2 0x1B96 JUMP JUMPDEST POP PUSH20 0xFFFFFFFFFFFFFFFFFFFFFFFFFFFFFFFFFFFFFFFF PUSH1 0x40 MLOAD SWAP2 AND DUP2 MSTORE RETURN JUMPDEST SWAP1 PUSH1 0x1 DUP3 DUP2 SHR SWAP3 AND DUP1 ISZERO PUSH2 0xB85 JUMPI JUMPDEST PUSH1 0x20 DUP4 LT EQ PUSH2 0xB56 JUMPI JUMP JUMPDEST PUSH32 0x4E487B7100000000000000000000000000000000000000000000000000000000 PUSH1 0x0 MSTORE PUSH1 0x22 PUSH1 0x4 MSTORE PUSH1 0x24 PUSH1 0x0 REVERT JUMPDEST SWAP2 PUSH1 0x7F AND SWAP2 PUSH2 0xB4B JUMP JUMPDEST POP PUSH32 0x4E487B7100000000000000000000000000000000000000000000000000000000 PUSH1 0x0 MSTORE PUSH1 0x41 PUSH1 0x4 MSTORE PUSH1 0x24 PUSH1 0x0 REVERT JUMPDEST PUSH1 0x40 DUP2 ADD SWAP1 DUP2 LT PUSH8 0xFFFFFFFFFFFFFFFF DUP3 GT OR PUSH2 0xBDB JUMPI PUSH1 0x40 MSTORE JUMP JUMPDEST PUSH2 0xBE3 PUSH2 0xB8F JUMP JUMPDEST PUSH1 0x40 MSTORE JUMP JUMPDEST PUSH2 0x120 DUP2 ADD SWAP1 DUP2 LT PUSH8 0xFFFFFFFFFFFFFFFF DUP3 GT OR PUSH2 0xBDB JUMPI PUSH1 0x40 MSTORE JUMP JUMPDEST SWAP1 PUSH1 0x1F PUSH1 0x1F NOT SWAP2 ADD AND DUP2 ADD SWAP1 DUP2 LT PUSH8 0xFFFFFFFFFFFFFFFF DUP3 GT OR PUSH2 0xBDB JUMPI PUSH1 0x40 MSTORE JUMP JUMPDEST PUSH1 0x40 MLOAD SWAP1 PUSH1 0x0 DUP3 PUSH1 0xE SLOAD SWAP2 PUSH2 0xC3C DUP4 PUSH2 0xB3C JUMP JUMPDEST DUP1 DUP4 MSTORE SWAP3 PUSH1 0x1 SWAP1 DUP2 DUP2 AND SWAP1 DUP2 ISZERO PUSH2 0xCC4 JUMPI POP PUSH1 0x1 EQ PUSH2 0xC65 JUMPI JUMPDEST POP PUSH2 0xC63 SWAP3 POP SUB DUP4 PUSH2 0xC05 JUMP JUMPDEST JUMP JUMPDEST PUSH1 0xE PUSH1 0x0 SWAP1 DUP2 MSTORE SWAP2 POP PUSH32 0xBB7B4A454DC3493923482F07822329ED19E8244EFF582CC204F8554C3620C3FD JUMPDEST DUP5 DUP4 LT PUSH2 0xCA9 JUMPI POP PUSH2 0xC63 SWAP4 POP POP DUP2 ADD PUSH1 0x20 ADD CODESIZE PUSH2 0xC56 JUMP JUMPDEST DUP2 SWAP4 POP SWAP1 DUP2 PUSH1 0x20 SWAP3 SLOAD DUP4 DUP6 DUP11 ADD ADD MSTORE ADD SWAP2 ADD SWAP1 SWAP2 DUP6 SWAP3 PUSH2 0xC90 JUMP JUMPDEST PUSH1 0x20 SWAP4 POP PUSH2 0xC63 SWAP6 SWAP3 POP PUSH32 0xFFFFFFFFFFFFFFFFFFFFFFFFFFFFFFFFFFFFFFFFFFFFFFFFFFFFFFFFFFFFFF00 SWAP2 POP AND DUP3 DUP5 ADD MSTORE ISZERO ISZERO PUSH1 0x5 SHL DUP3 ADD ADD CODESIZE PUSH2 0xC56 JUMP JUMPDEST POP CALLVALUE PUSH2 0xE JUMPI PUSH1 0x0 DUP1 PUSH1 0x3 NOT CALLDATASIZE ADD SLT PUSH2 0x57E JUMPI PUSH1 0x40 MLOAD SWAP1 DUP1 PUSH1 0x9 SLOAD PUSH2 0xD28 DUP2 PUSH2 0xB3C JUMP JUMPDEST DUP1 DUP6 MSTORE SWAP2 PUSH1 0x1 SWAP2 DUP1 DUP4 AND SWAP1 DUP2 ISZERO PUSH2 0x536 JUMPI POP PUSH1 0x1 EQ PUSH2 0xD51 JUMPI PUSH2 0x4D8 DUP6 PUSH2 0x4CC DUP2 DUP8 SUB DUP3 PUSH2 0xC05 JUMP JUMPDEST SWAP3 POP PUSH1 0x9 DUP4 MSTORE PUSH32 0x6E1540171B6C0C960B71A7020D9F60077F6AF931A8BBF590DA0223DACF75C7AF JUMPDEST DUP3 DUP5 LT PUSH2 0xD94 JUMPI POP POP POP DUP2 ADD PUSH1 0x20 ADD PUSH2 0x4CC DUP3 PUSH2 0x4D8 PUSH2 0x4BC JUMP JUMPDEST DUP1 SLOAD PUSH1 0x20 DUP6 DUP8 ADD DUP2 ADD SWAP2 SWAP1 SWAP2 MSTORE SWAP1 SWAP4 ADD SWAP3 DUP2 ADD PUSH2 0xD79 JUMP JUMPDEST POP CALLVALUE PUSH2 0xE JUMPI PUSH1 0x0 DUP1 PUSH1 0x3 NOT CALLDATASIZE ADD SLT PUSH2 0x57E JUMPI PUSH1 0x40 MLOAD SWAP1 DUP1 PUSH1 0xE SLOAD PUSH2 0xDD0 DUP2 PUSH2 0xB3C JUMP JUMPDEST DUP1 DUP6 MSTORE SWAP2 PUSH1 0x1 SWAP2 DUP1 DUP4 AND SWAP1 DUP2 ISZERO PUSH2 0x536 JUMPI POP PUSH1 0x1 EQ PUSH2 0xDF9 JUMPI PUSH2 0x4D8 DUP6 PUSH2 0x4CC DUP2 DUP8 SUB DUP3 PUSH2 0xC05 JUMP JUMPDEST SWAP3 POP PUSH1 0xE DUP4 MSTORE PUSH32 0xBB7B4A454DC3493923482F07822329ED19E8244EFF582CC204F8554C3620C3FD JUMPDEST DUP3 DUP5 LT PUSH2 0xE3C JUMPI POP POP POP DUP2 ADD PUSH1 0x20 ADD PUSH2 0x4CC DUP3 PUSH2 0x4D8 PUSH2 0x4BC JUMP JUMPDEST DUP1 SLOAD PUSH1 0x20 DUP6 DUP8 ADD DUP2 ADD SWAP2 SWAP1 SWAP2 MSTORE SWAP1 SWAP4 ADD SWAP3 DUP2 ADD PUSH2 0xE21 JUMP JUMPDEST POP CALLVALUE PUSH2 0xE JUMPI PUSH1 0x20 PUSH1 0x3 NOT CALLDATASIZE ADD SLT PUSH2 0xE JUMPI PUSH20 0xFFFFFFFFFFFFFFFFFFFFFFFFFFFFFFFFFFFFFFFF DUP1 PUSH2 0xE84 PUSH2 0x5BE JUMP JUMPDEST AND DUP1 ISZERO PUSH2 0xEE2 JUMPI PUSH1 0x0 DUP1 SWAP2 PUSH1 0x4 SLOAD SWAP3 JUMPDEST DUP4 DUP2 LT DUP1 ISZERO PUSH2 0xED7 JUMPI PUSH2 0xEB0 JUMPI JUMPDEST PUSH2 0xEAB SWAP1 PUSH2 0x1B7A JUMP JUMPDEST PUSH2 0xE94 JUMP JUMPDEST DUP5 PUSH2 0xEBA DUP3 PUSH2 0x1B96 JUMP JUMPDEST POP AND DUP3 SUB PUSH2 0xEA2 JUMPI SWAP2 PUSH2 0xECF PUSH2 0xEAB SWAP2 PUSH2 0x1B7A JUMP JUMPDEST SWAP3 SWAP1 POP PUSH2 0xEA2 JUMP JUMPDEST PUSH1 0x40 MLOAD DUP5 DUP2 MSTORE PUSH1 0x20 SWAP1 RETURN JUMPDEST PUSH1 0x84 PUSH1 0x40 MLOAD PUSH3 0x461BCD PUSH1 0xE5 SHL DUP2 MSTORE PUSH1 0x20 PUSH1 0x4 DUP3 ADD MSTORE PUSH1 0x2D PUSH1 0x24 DUP3 ADD MSTORE PUSH32 0x4552433732315073693A2062616C616E636520717565727920666F7220746865 PUSH1 0x44 DUP3 ADD MSTORE PUSH32 0x207A65726F206164647265737300000000000000000000000000000000000000 PUSH1 0x64 DUP3 ADD MSTORE REVERT JUMPDEST POP CALLVALUE PUSH2 0xE JUMPI PUSH1 0x0 DUP1 PUSH1 0x3 NOT CALLDATASIZE ADD SLT PUSH2 0x57E JUMPI PUSH1 0x8 SLOAD PUSH32 0xFFFFFFFFFFFFFFFFFFFFFFFF0000000000000000000000000000000000000000 PUSH20 0xFFFFFFFFFFFFFFFFFFFFFFFFFFFFFFFFFFFFFFFF DUP3 AND SWAP2 PUSH2 0xFA6 CALLER DUP5 EQ PUSH2 0x1A71 JUMP JUMPDEST AND PUSH1 0x8 SSTORE DUP2 PUSH1 0x40 MLOAD SWAP2 PUSH32 0x8BE0079C531659141344CD1FD0A4F28419497F9722A3DAAFE3B4186F6B6457E0 DUP3 DUP5 LOG3 RETURN JUMPDEST POP CALLVALUE PUSH2 0xE JUMPI PUSH1 0x0 PUSH1 0x3 NOT CALLDATASIZE ADD SLT PUSH2 0xE JUMPI PUSH1 0x20 PUSH1 0xB SLOAD PUSH1 0x40 MLOAD SWAP1 DUP2 MSTORE RETURN JUMPDEST POP CALLVALUE PUSH2 0xE JUMPI PUSH1 0x40 PUSH1 0x3 NOT CALLDATASIZE ADD SLT PUSH2 0xE JUMPI PUSH2 0x100E PUSH2 0x5BE JUMP JUMPDEST PUSH1 0x24 CALLDATALOAD SWAP1 PUSH20 0xFFFFFFFFFFFFFFFFFFFFFFFFFFFFFFFFFFFFFFFF SWAP1 PUSH2 0x1037 DUP3 PUSH1 0x8 SLOAD AND CALLER EQ PUSH2 0x1A71 JUMP JUMPDEST PUSH2 0x2EE DUP4 GT PUSH2 0x10F0 JUMPI PUSH2 0x10A2 SWAP2 PUSH1 0x40 MLOAD SWAP2 PUSH2 0x1051 DUP4 PUSH2 0xBBF JUMP JUMPDEST AND SWAP1 DUP2 DUP2 MSTORE PUSH1 0x20 PUSH3 0xFFFFFF DUP6 AND SWAP2 ADD MSTORE PUSH20 0xFFFFFFFFFFFFFFFFFFFFFFFFFFFFFFFFFFFFFFFF AND PUSH32 0xFFFFFFFFFFFFFFFFFFFFFFFF0000000000000000000000000000000000000000 PUSH1 0x7 SLOAD AND OR PUSH1 0x7 SSTORE JUMP JUMPDEST PUSH32 0xFFFFFFFFFFFFFFFFFF000000FFFFFFFFFFFFFFFFFFFFFFFFFFFFFFFFFFFFFFFF PUSH23 0xFFFFFF0000000000000000000000000000000000000000 PUSH1 0x7 SLOAD SWAP3 PUSH1 0xA0 SHL AND SWAP2 AND OR PUSH1 0x7 SSTORE PUSH1 0x0 PUSH1 0x40 MLOAD RETURN JUMPDEST PUSH1 0x4 PUSH1 0x40 MLOAD PUSH32 0xFBBD019000000000000000000000000000000000000000000000000000000000 DUP2 MSTORE REVERT JUMPDEST POP CALLVALUE PUSH2 0xE JUMPI PUSH1 0x0 PUSH1 0x3 NOT CALLDATASIZE ADD SLT PUSH2 0xE JUMPI PUSH1 0x20 PUSH20 0xFFFFFFFFFFFFFFFFFFFFFFFFFFFFFFFFFFFFFFFF PUSH1 0x8 SLOAD AND PUSH1 0x40 MLOAD SWAP1 DUP2 MSTORE RETURN JUMPDEST POP CALLVALUE PUSH2 0xE JUMPI PUSH1 0x20 PUSH1 0x3 NOT CALLDATASIZE ADD SLT PUSH2 0xE JUMPI PUSH2 0x1184 PUSH20 0xFFFFFFFFFFFFFFFFFFFFFFFFFFFFFFFFFFFFFFFF PUSH1 0x8 SLOAD AND CALLER EQ PUSH2 0x1A71 JUMP JUMPDEST PUSH1 0x4 CALLDATALOAD PUSH1 0xD SSTORE STOP JUMPDEST POP CALLVALUE PUSH2 0xE JUMPI PUSH1 0x0 DUP1 PUSH1 0x3 NOT CALLDATASIZE ADD SLT PUSH2 0x57E JUMPI PUSH1 0x40 MLOAD SWAP1 DUP1 PUSH1 0x2 SLOAD PUSH2 0x11B0 DUP2 PUSH2 0xB3C JUMP JUMPDEST DUP1 DUP6 MSTORE SWAP2 PUSH1 0x1 SWAP2 DUP1 DUP4 AND SWAP1 DUP2 ISZERO PUSH2 0x536 JUMPI POP PUSH1 0x1 EQ PUSH2 0x11D9 JUMPI PUSH2 0x4D8 DUP6 PUSH2 0x4CC DUP2 DUP8 SUB DUP3 PUSH2 0xC05 JUMP JUMPDEST SWAP3 POP PUSH1 0x2 DUP4 MSTORE PUSH32 0x405787FA12A823E0F2B7631CC41B3BA8828B3321CA811111FA75CD3AA3BB5ACE JUMPDEST DUP3 DUP5 LT PUSH2 0x121C JUMPI POP POP POP DUP2 ADD PUSH1 0x20 ADD PUSH2 0x4CC DUP3 PUSH2 0x4D8 PUSH2 0x4BC JUMP JUMPDEST DUP1 SLOAD PUSH1 0x20 DUP6 DUP8 ADD DUP2 ADD SWAP2 SWAP1 SWAP2 MSTORE SWAP1 SWAP4 ADD SWAP3 DUP2 ADD PUSH2 0x1201 JUMP JUMPDEST POP CALLVALUE PUSH2 0xE JUMPI PUSH1 0x0 PUSH1 0x3 NOT CALLDATASIZE ADD SLT PUSH2 0xE JUMPI PUSH1 0x20 PUSH1 0xD SLOAD PUSH1 0x40 MLOAD SWAP1 DUP2 MSTORE RETURN JUMPDEST POP PUSH1 0x20 PUSH1 0x3 NOT CALLDATASIZE ADD SLT PUSH2 0xE JUMPI PUSH1 0x4 DUP1 CALLDATALOAD PUSH2 0x1277 PUSH2 0x1273 PUSH1 0xC SLOAD PUSH1 0xFF AND SWAP1 JUMP JUMPDEST ISZERO SWAP1 JUMP JUMPDEST PUSH2 0x141D JUMPI DUP1 ISZERO PUSH2 0x13F4 JUMPI PUSH2 0x128C DUP2 DUP4 SLOAD PUSH2 0x1FEE JUMP JUMPDEST PUSH2 0x1388 DUP2 GT PUSH2 0x13BE JUMPI POP CALLER PUSH1 0x0 SWAP1 DUP2 MSTORE PUSH1 0xA PUSH1 0x20 MSTORE PUSH1 0x40 SWAP1 KECCAK256 SLOAD PUSH2 0x12B0 DUP3 DUP3 PUSH2 0x1FEE JUMP JUMPDEST SWAP1 PUSH1 0xA DUP3 GT PUSH2 0x1387 JUMPI ISZERO DUP1 PUSH2 0x137A JUMPI JUMPDEST ISZERO PUSH2 0x1369 JUMPI PUSH2 0x12D8 PUSH2 0x12D3 PUSH1 0xB SLOAD PUSH2 0x1B7A JUMP JUMPDEST PUSH1 0xB SSTORE JUMP JUMPDEST PUSH2 0x12ED PUSH1 0xD SLOAD PUSH2 0x12E7 DUP5 PUSH2 0x2A57 JUMP JUMPDEST SWAP1 PUSH2 0x1B5B JUMP JUMPDEST DUP1 CALLVALUE SUB PUSH2 0x132A JUMPI PUSH2 0x66A DUP4 DUP4 PUSH2 0x1323 CALLER PUSH20 0xFFFFFFFFFFFFFFFFFFFFFFFFFFFFFFFFFFFFFFFF AND PUSH1 0x0 MSTORE PUSH1 0xA PUSH1 0x20 MSTORE PUSH1 0x40 PUSH1 0x0 KECCAK256 SWAP1 JUMP JUMPDEST SSTORE CALLER PUSH2 0x2AD8 JUMP JUMPDEST PUSH1 0x40 DUP1 MLOAD PUSH32 0x23B18F5F00000000000000000000000000000000000000000000000000000000 DUP2 MSTORE DUP1 DUP7 ADD SWAP3 DUP4 MSTORE CALLVALUE PUSH1 0x20 DUP5 ADD MSTORE SWAP2 DUP3 SWAP2 ADD SUB SWAP1 REVERT JUMPDEST SUB SWAP1 REVERT JUMPDEST PUSH2 0x1375 DUP3 PUSH1 0xD SLOAD PUSH2 0x1B5B JUMP JUMPDEST PUSH2 0x12ED JUMP JUMPDEST POP PUSH2 0x7D0 PUSH1 0xB SLOAD LT PUSH2 0x12C0 JUMP JUMPDEST POP PUSH1 0x40 MLOAD PUSH32 0xE0F21E9A00000000000000000000000000000000000000000000000000000000 DUP2 MSTORE DUP1 DUP5 ADD SWAP2 DUP3 MSTORE SWAP1 DUP2 SWAP1 PUSH1 0x20 ADD SUB SWAP1 REVERT JUMPDEST PUSH1 0x40 MLOAD PUSH32 0x84A9CE5800000000000000000000000000000000000000000000000000000000 DUP2 MSTORE DUP1 DUP5 ADD SWAP2 DUP3 MSTORE SWAP1 DUP2 SWAP1 PUSH1 0x20 ADD SUB SWAP1 REVERT JUMPDEST POP PUSH1 0x40 MLOAD PUSH32 0xAD36AB8600000000000000000000000000000000000000000000000000000000 DUP2 MSTORE REVERT JUMPDEST POP PUSH1 0x40 MLOAD PUSH32 0x589ED34B00000000000000000000000000000000000000000000000000000000 DUP2 MSTORE REVERT JUMPDEST POP CALLVALUE PUSH2 0xE JUMPI PUSH1 0x40 PUSH1 0x3 NOT CALLDATASIZE ADD SLT PUSH2 0xE JUMPI PUSH2 0x1460 PUSH2 0x5BE JUMP JUMPDEST PUSH1 0x24 CALLDATALOAD DUP1 ISZERO ISZERO DUP2 SUB PUSH2 0xE JUMPI PUSH20 0xFFFFFFFFFFFFFFFFFFFFFFFFFFFFFFFFFFFFFFFF DUP3 AND SWAP2 CALLER DUP4 EQ PUSH2 0x1528 JUMPI DUP2 PUSH2 0x14C6 PUSH2 0x14F6 SWAP3 CALLER PUSH1 0x0 MSTORE PUSH1 0x6 PUSH1 0x20 MSTORE PUSH1 0x40 PUSH1 0x0 KECCAK256 SWAP1 PUSH20 0xFFFFFFFFFFFFFFFFFFFFFFFFFFFFFFFFFFFFFFFF AND PUSH1 0x0 MSTORE PUSH1 0x20 MSTORE PUSH1 0x40 PUSH1 0x0 KECCAK256 SWAP1 JUMP JUMPDEST SWAP1 PUSH1 0xFF PUSH32 0xFFFFFFFFFFFFFFFFFFFFFFFFFFFFFFFFFFFFFFFFFFFFFFFFFFFFFFFFFFFFFF00 DUP4 SLOAD AND SWAP2 ISZERO ISZERO AND OR SWAP1 SSTORE JUMP JUMPDEST PUSH1 0x40 MLOAD SWAP1 ISZERO ISZERO DUP2 MSTORE CALLER SWAP1 PUSH32 0x17307EAB39AB6107E8899845AD3D59BD9653F200F220920489CA2B5937696C31 SWAP1 PUSH1 0x20 SWAP1 LOG3 STOP JUMPDEST PUSH1 0x64 PUSH1 0x40 MLOAD PUSH3 0x461BCD PUSH1 0xE5 SHL DUP2 MSTORE PUSH1 0x20 PUSH1 0x4 DUP3 ADD MSTORE PUSH1 0x1C PUSH1 0x24 DUP3 ADD MSTORE PUSH32 0x4552433732315073693A20617070726F766520746F2063616C6C657200000000 PUSH1 0x44 DUP3 ADD MSTORE REVERT JUMPDEST PUSH1 0x1F NOT PUSH1 0x1F PUSH1 0x20 SWAP3 PUSH8 0xFFFFFFFFFFFFFFFF DUP2 GT PUSH2 0x158A JUMPI JUMPDEST ADD AND ADD SWAP1 JUMP JUMPDEST PUSH2 0x1592 PUSH2 0xB8F JUMP JUMPDEST PUSH2 0x1584 JUMP JUMPDEST SWAP3 SWAP2 SWAP3 PUSH2 0x15A3 DUP3 PUSH2 0x156C JUMP JUMPDEST SWAP2 PUSH2 0x15B1 PUSH1 0x40 MLOAD SWAP4 DUP5 PUSH2 0xC05 JUMP JUMPDEST DUP3 SWAP5 DUP2 DUP5 MSTORE DUP2 DUP4 ADD GT PUSH2 0xE JUMPI DUP3 DUP2 PUSH1 0x20 SWAP4 DUP5 PUSH1 0x0 SWAP7 ADD CALLDATACOPY ADD ADD MSTORE JUMP JUMPDEST POP CALLVALUE PUSH2 0xE JUMPI PUSH1 0x80 PUSH1 0x3 NOT CALLDATASIZE ADD SLT PUSH2 0xE JUMPI PUSH2 0x15E8 PUSH2 0x5BE JUMP JUMPDEST PUSH2 0x15F0 PUSH2 0x5E1 JUMP JUMPDEST PUSH1 0x64 CALLDATALOAD SWAP2 PUSH8 0xFFFFFFFFFFFFFFFF DUP4 GT PUSH2 0xE JUMPI CALLDATASIZE PUSH1 0x23 DUP5 ADD SLT ISZERO PUSH2 0xE JUMPI PUSH2 0x1625 PUSH2 0x66A SWAP4 CALLDATASIZE SWAP1 PUSH1 0x24 DUP2 PUSH1 0x4 ADD CALLDATALOAD SWAP2 ADD PUSH2 0x1597 JUMP JUMPDEST SWAP2 PUSH1 0x44 CALLDATALOAD SWAP2 PUSH2 0x1DB8 JUMP JUMPDEST POP CALLVALUE PUSH2 0xE JUMPI PUSH1 0x20 PUSH1 0x3 NOT CALLDATASIZE ADD SLT PUSH2 0xE JUMPI PUSH1 0x4 CALLDATALOAD PUSH1 0x4 SLOAD DUP2 LT ISZERO PUSH2 0x170A JUMPI PUSH2 0x1659 PUSH1 0x9 SLOAD PUSH2 0xB3C JUMP JUMPDEST PUSH2 0x1669 JUMPI POP PUSH2 0x4D8 PUSH2 0x4CC PUSH2 0xC28 JUMP JUMPDEST PUSH2 0x16C1 PUSH2 0x16F8 PUSH2 0x16A6 PUSH1 0x1 DUP5 PUSH32 0xFFFFFFFFFFFFFFFFFFFFFFFFFFFFFFFFFFFFFFFFFFFFFFFFFFFFFFFFFFFFFFFE PUSH2 0x4D8 SWAP7 GT PUSH2 0x16FD JUMPI JUMPDEST ADD PUSH2 0x2DD6 JUMP JUMPDEST PUSH2 0x16EA PUSH1 0x40 MLOAD SWAP4 DUP5 SWAP3 PUSH2 0x16BB PUSH1 0x20 DUP6 ADD PUSH2 0x2D16 JUMP JUMPDEST SWAP1 PUSH2 0x2DC3 JUMP JUMPDEST PUSH32 0x2E6A736F6E000000000000000000000000000000000000000000000000000000 DUP2 MSTORE PUSH1 0x5 ADD SWAP1 JUMP JUMPDEST SUB PUSH1 0x1F NOT DUP2 ADD DUP4 MSTORE DUP3 PUSH2 0xC05 JUMP JUMPDEST PUSH2 0x4CC JUMP JUMPDEST PUSH2 0x1705 PUSH2 0x1B2B JUMP JUMPDEST PUSH2 0x16A0 JUMP JUMPDEST PUSH1 0x4 PUSH1 0x40 MLOAD PUSH32 0x72EC253000000000000000000000000000000000000000000000000000000000 DUP2 MSTORE REVERT JUMPDEST POP CALLVALUE PUSH2 0xE JUMPI PUSH1 0x20 PUSH1 0x3 NOT CALLDATASIZE ADD SLT PUSH2 0xE JUMPI PUSH20 0xFFFFFFFFFFFFFFFFFFFFFFFFFFFFFFFFFFFFFFFF PUSH2 0x1763 PUSH2 0x5BE JUMP JUMPDEST AND PUSH1 0x0 MSTORE PUSH1 0xA PUSH1 0x20 MSTORE PUSH1 0x20 PUSH1 0x40 PUSH1 0x0 KECCAK256 SLOAD PUSH1 0x40 MLOAD SWAP1 DUP2 MSTORE RETURN JUMPDEST POP CALLVALUE PUSH2 0xE JUMPI PUSH1 0x0 PUSH1 0x3 NOT CALLDATASIZE ADD SLT PUSH2 0xE JUMPI PUSH2 0x17B1 PUSH20 0xFFFFFFFFFFFFFFFFFFFFFFFFFFFFFFFFFFFFFFFF PUSH1 0x8 SLOAD AND CALLER EQ PUSH2 0x1A71 JUMP JUMPDEST PUSH1 0xC SLOAD PUSH32 0xFFFFFFFFFFFFFFFFFFFFFFFFFFFFFFFFFFFFFFFFFFFFFFFFFFFFFFFFFFFFFF00 PUSH1 0xFF DUP1 DUP4 AND ISZERO AND SWAP2 AND OR PUSH1 0xC SSTORE PUSH1 0x0 PUSH1 0x40 MLOAD RETURN JUMPDEST POP CALLVALUE PUSH2 0xE JUMPI PUSH1 0x40 PUSH1 0x3 NOT CALLDATASIZE ADD SLT PUSH2 0xE JUMPI PUSH1 0x20 PUSH1 0xFF PUSH2 0x185A PUSH2 0x180A PUSH2 0x5BE JUMP JUMPDEST PUSH20 0xFFFFFFFFFFFFFFFFFFFFFFFFFFFFFFFFFFFFFFFF PUSH2 0x1827 PUSH2 0x5E1 JUMP JUMPDEST SWAP2 AND PUSH1 0x0 MSTORE PUSH1 0x6 DUP5 MSTORE PUSH1 0x40 PUSH1 0x0 KECCAK256 SWAP1 PUSH20 0xFFFFFFFFFFFFFFFFFFFFFFFFFFFFFFFFFFFFFFFF AND PUSH1 0x0 MSTORE PUSH1 0x20 MSTORE PUSH1 0x40 PUSH1 0x0 KECCAK256 SWAP1 JUMP JUMPDEST SLOAD AND PUSH1 0x40 MLOAD SWAP1 ISZERO ISZERO DUP2 MSTORE RETURN JUMPDEST POP CALLVALUE PUSH2 0xE JUMPI PUSH1 0x20 PUSH1 0x3 NOT CALLDATASIZE ADD SLT PUSH2 0xE JUMPI PUSH2 0x1880 PUSH2 0x5BE JUMP JUMPDEST PUSH20 0xFFFFFFFFFFFFFFFFFFFFFFFFFFFFFFFFFFFFFFFF PUSH2 0x18A4 DUP2 PUSH1 0x8 SLOAD AND CALLER EQ PUSH2 0x1A71 JUMP JUMPDEST DUP2 AND ISZERO PUSH2 0x18B4 JUMPI PUSH2 0x66A SWAP1 PUSH2 0x1ABC JUMP JUMPDEST PUSH1 0x84 PUSH1 0x40 MLOAD PUSH3 0x461BCD PUSH1 0xE5 SHL DUP2 MSTORE PUSH1 0x20 PUSH1 0x4 DUP3 ADD MSTORE PUSH1 0x26 PUSH1 0x24 DUP3 ADD MSTORE PUSH32 0x4F776E61626C653A206E6577206F776E657220697320746865207A65726F2061 PUSH1 0x44 DUP3 ADD MSTORE PUSH32 0x6464726573730000000000000000000000000000000000000000000000000000 PUSH1 0x64 DUP3 ADD MSTORE REVERT JUMPDEST POP CALLVALUE PUSH2 0xE JUMPI PUSH1 0x20 DUP1 PUSH1 0x3 NOT CALLDATASIZE ADD SLT PUSH2 0xE JUMPI PUSH8 0xFFFFFFFFFFFFFFFF PUSH1 0x4 CALLDATALOAD DUP2 DUP2 GT PUSH2 0xE JUMPI CALLDATASIZE PUSH1 0x23 DUP3 ADD SLT ISZERO PUSH2 0xE JUMPI PUSH2 0x1963 SWAP1 CALLDATASIZE SWAP1 PUSH1 0x24 DUP2 PUSH1 0x4 ADD CALLDATALOAD SWAP2 ADD PUSH2 0x1597 JUMP JUMPDEST SWAP2 PUSH2 0x1987 PUSH20 0xFFFFFFFFFFFFFFFFFFFFFFFFFFFFFFFFFFFFFFFF PUSH1 0x8 SLOAD AND CALLER EQ PUSH2 0x1A71 JUMP JUMPDEST DUP3 MLOAD SWAP2 DUP3 GT PUSH2 0x1A64 JUMPI JUMPDEST PUSH2 0x19A5 DUP3 PUSH2 0x19A0 PUSH1 0xE SLOAD PUSH2 0xB3C JUMP JUMPDEST PUSH2 0x2C34 JUMP JUMPDEST DUP1 PUSH1 0x1F DUP4 GT PUSH1 0x1 EQ PUSH2 0x19DD JUMPI POP DUP2 SWAP3 PUSH1 0x0 SWAP3 PUSH2 0x19D2 JUMPI JUMPDEST POP POP PUSH1 0x0 NOT DUP3 PUSH1 0x1 SHL SWAP3 PUSH1 0x3 SHL SHR NOT AND OR PUSH1 0xE SSTORE STOP JUMPDEST ADD MLOAD SWAP1 POP CODESIZE DUP1 PUSH2 0x19BC JUMP JUMPDEST SWAP1 PUSH1 0x1F NOT DUP4 AND SWAP4 PUSH2 0x1A10 PUSH1 0xE PUSH1 0x0 MSTORE PUSH32 0xBB7B4A454DC3493923482F07822329ED19E8244EFF582CC204F8554C3620C3FD SWAP1 JUMP JUMPDEST SWAP3 PUSH1 0x0 SWAP1 JUMPDEST DUP7 DUP3 LT PUSH2 0x1A4C JUMPI POP POP DUP4 PUSH1 0x1 SWAP6 LT PUSH2 0x1A33 JUMPI JUMPDEST POP POP POP DUP2 SHL ADD PUSH1 0xE SSTORE STOP JUMPDEST ADD MLOAD PUSH1 0x0 NOT PUSH1 0xF8 DUP5 PUSH1 0x3 SHL AND SHR NOT AND SWAP1 SSTORE CODESIZE DUP1 DUP1 PUSH2 0x1A28 JUMP JUMPDEST DUP1 PUSH1 0x1 DUP6 SWAP7 DUP3 SWAP5 SWAP7 DUP7 ADD MLOAD DUP2 SSTORE ADD SWAP6 ADD SWAP4 ADD SWAP1 PUSH2 0x1A15 JUMP JUMPDEST PUSH2 0x1A6C PUSH2 0xB8F JUMP JUMPDEST PUSH2 0x1991 JUMP JUMPDEST ISZERO PUSH2 0x1A78 JUMPI JUMP JUMPDEST PUSH1 0x64 PUSH1 0x40 MLOAD PUSH3 0x461BCD PUSH1 0xE5 SHL DUP2 MSTORE PUSH1 0x20 PUSH1 0x4 DUP3 ADD MSTORE PUSH1 0x20 PUSH1 0x24 DUP3 ADD MSTORE PUSH32 0x4F776E61626C653A2063616C6C6572206973206E6F7420746865206F776E6572 PUSH1 0x44 DUP3 ADD MSTORE REVERT JUMPDEST PUSH1 0x8 SLOAD SWAP1 PUSH20 0xFFFFFFFFFFFFFFFFFFFFFFFFFFFFFFFFFFFFFFFF DUP1 SWAP2 AND SWAP2 DUP3 PUSH32 0xFFFFFFFFFFFFFFFFFFFFFFFF0000000000000000000000000000000000000000 DUP3 AND OR PUSH1 0x8 SSTORE AND PUSH32 0x8BE0079C531659141344CD1FD0A4F28419497F9722A3DAAFE3B4186F6B6457E0 PUSH1 0x0 PUSH1 0x40 MLOAD LOG3 JUMP JUMPDEST POP PUSH32 0x4E487B7100000000000000000000000000000000000000000000000000000000 PUSH1 0x0 MSTORE PUSH1 0x11 PUSH1 0x4 MSTORE PUSH1 0x24 PUSH1 0x0 REVERT JUMPDEST DUP1 PUSH1 0x0 NOT DIV DUP3 GT DUP2 ISZERO ISZERO AND PUSH2 0x1B6E JUMPI MUL SWAP1 JUMP JUMPDEST PUSH2 0x1B76 PUSH2 0x1B2B JUMP JUMPDEST MUL SWAP1 JUMP JUMPDEST PUSH1 0x1 SWAP1 PUSH1 0x0 NOT DUP2 EQ PUSH2 0x1B8A JUMPI ADD SWAP1 JUMP JUMPDEST PUSH2 0x1B92 PUSH2 0x1B2B JUMP JUMPDEST ADD SWAP1 JUMP JUMPDEST PUSH1 0x4 SLOAD DUP2 LT ISZERO PUSH2 0x1BD1 JUMPI PUSH2 0x1BA9 SWAP1 PUSH2 0x262C JUMP JUMPDEST DUP1 PUSH1 0x0 MSTORE PUSH1 0x3 PUSH1 0x20 MSTORE PUSH20 0xFFFFFFFFFFFFFFFFFFFFFFFFFFFFFFFFFFFFFFFF PUSH1 0x40 PUSH1 0x0 KECCAK256 SLOAD AND SWAP2 JUMP JUMPDEST PUSH1 0x84 PUSH1 0x40 MLOAD PUSH3 0x461BCD PUSH1 0xE5 SHL DUP2 MSTORE PUSH1 0x20 PUSH1 0x4 DUP3 ADD MSTORE PUSH1 0x2C PUSH1 0x24 DUP3 ADD MSTORE PUSH32 0x4552433732315073693A206F776E657220717565727920666F72206E6F6E6578 PUSH1 0x44 DUP3 ADD MSTORE PUSH32 0x697374656E7420746F6B656E0000000000000000000000000000000000000000 PUSH1 0x64 DUP3 ADD MSTORE REVERT JUMPDEST ISZERO PUSH2 0x1C42 JUMPI JUMP JUMPDEST PUSH1 0x84 PUSH1 0x40 MLOAD PUSH3 0x461BCD PUSH1 0xE5 SHL DUP2 MSTORE PUSH1 0x20 PUSH1 0x4 DUP3 ADD MSTORE PUSH1 0x3B PUSH1 0x24 DUP3 ADD MSTORE PUSH32 0x4552433732315073693A20617070726F76652063616C6C6572206973206E6F74 PUSH1 0x44 DUP3 ADD MSTORE PUSH32 0x206F776E6572206E6F7220617070726F76656420666F7220616C6C0000000000 PUSH1 0x64 DUP3 ADD MSTORE REVERT JUMPDEST PUSH1 0x4 SLOAD DUP2 LT ISZERO PUSH2 0x1CDD JUMPI PUSH1 0x0 MSTORE PUSH1 0x5 PUSH1 0x20 MSTORE PUSH20 0xFFFFFFFFFFFFFFFFFFFFFFFFFFFFFFFFFFFFFFFF PUSH1 0x40 PUSH1 0x0 KECCAK256 SLOAD AND SWAP1 JUMP JUMPDEST PUSH1 0x84 PUSH1 0x40 MLOAD PUSH3 0x461BCD PUSH1 0xE5 SHL DUP2 MSTORE PUSH1 0x20 PUSH1 0x4 DUP3 ADD MSTORE PUSH1 0x2F PUSH1 0x24 DUP3 ADD MSTORE PUSH32 0x4552433732315073693A20617070726F76656420717565727920666F72206E6F PUSH1 0x44 DUP3 ADD MSTORE PUSH32 0x6E6578697374656E7420746F6B656E0000000000000000000000000000000000 PUSH1 0x64 DUP3 ADD MSTORE REVERT JUMPDEST ISZERO PUSH2 0x1D4E JUMPI JUMP JUMPDEST PUSH1 0x84 PUSH1 0x40 MLOAD PUSH3 0x461BCD PUSH1 0xE5 SHL DUP2 MSTORE PUSH1 0x20 PUSH1 0x4 DUP3 ADD MSTORE PUSH1 0x34 PUSH1 0x24 DUP3 ADD MSTORE PUSH32 0x4552433732315073693A207472616E736665722063616C6C6572206973206E6F PUSH1 0x44 DUP3 ADD MSTORE PUSH32 0x74206F776E6572206E6F7220617070726F766564000000000000000000000000 PUSH1 0x64 DUP3 ADD MSTORE REVERT JUMPDEST SWAP1 PUSH2 0x1DDC SWAP4 SWAP3 SWAP2 PUSH2 0x1DCC PUSH2 0x7BC DUP5 CALLER PUSH2 0x1E4E JUMP JUMPDEST PUSH2 0x1DD7 DUP4 DUP4 DUP4 PUSH2 0x1FFA JUMP JUMPDEST PUSH2 0x23EB JUMP JUMPDEST ISZERO PUSH2 0x1DE3 JUMPI JUMP JUMPDEST PUSH1 0x40 MLOAD PUSH3 0x461BCD PUSH1 0xE5 SHL DUP2 MSTORE PUSH1 0x20 PUSH1 0x4 DUP3 ADD MSTORE PUSH1 0x35 PUSH1 0x24 DUP3 ADD MSTORE PUSH32 0x4552433732315073693A207472616E7366657220746F206E6F6E204552433732 PUSH1 0x44 DUP3 ADD MSTORE PUSH32 0x31526563656976657220696D706C656D656E7465720000000000000000000000 PUSH1 0x64 DUP3 ADD MSTORE PUSH1 0x84 SWAP1 REVERT JUMPDEST PUSH1 0x4 SLOAD DUP3 LT ISZERO PUSH2 0x1EE5 JUMPI PUSH2 0x1E61 DUP3 PUSH2 0x1B96 JUMP JUMPDEST POP PUSH20 0xFFFFFFFFFFFFFFFFFFFFFFFFFFFFFFFFFFFFFFFF DUP1 DUP4 AND SWAP1 DUP1 DUP4 AND DUP3 EQ SWAP5 DUP6 ISZERO PUSH2 0x1ECD JUMPI JUMPDEST POP POP POP DUP3 ISZERO PUSH2 0x1E96 JUMPI POP POP SWAP1 JUMP JUMPDEST PUSH1 0xFF SWAP3 POP SWAP1 PUSH2 0x6A0 PUSH2 0x1EC8 SWAP3 PUSH20 0xFFFFFFFFFFFFFFFFFFFFFFFFFFFFFFFFFFFFFFFF AND PUSH1 0x0 MSTORE PUSH1 0x6 PUSH1 0x20 MSTORE PUSH1 0x40 PUSH1 0x0 KECCAK256 SWAP1 JUMP JUMPDEST SLOAD AND SWAP1 JUMP JUMPDEST PUSH2 0x1EDA SWAP2 SWAP3 SWAP4 SWAP6 POP PUSH2 0x1CAC JUMP JUMPDEST AND EQ SWAP2 CODESIZE DUP1 DUP1 PUSH2 0x1E88 JUMP JUMPDEST PUSH1 0x84 PUSH1 0x40 MLOAD PUSH3 0x461BCD PUSH1 0xE5 SHL DUP2 MSTORE PUSH1 0x20 PUSH1 0x4 DUP3 ADD MSTORE PUSH1 0x2F PUSH1 0x24 DUP3 ADD MSTORE PUSH32 0x4552433732315073693A206F70657261746F7220717565727920666F72206E6F PUSH1 0x44 DUP3 ADD MSTORE PUSH32 0x6E6578697374656E7420746F6B656E0000000000000000000000000000000000 PUSH1 0x64 DUP3 ADD MSTORE REVERT JUMPDEST ISZERO PUSH2 0x1F56 JUMPI JUMP JUMPDEST PUSH1 0x84 PUSH1 0x40 MLOAD PUSH3 0x461BCD PUSH1 0xE5 SHL DUP2 MSTORE PUSH1 0x20 PUSH1 0x4 DUP3 ADD MSTORE PUSH1 0x27 PUSH1 0x24 DUP3 ADD MSTORE PUSH32 0x4552433732315073693A207472616E7366657220746F20746865207A65726F20 PUSH1 0x44 DUP3 ADD MSTORE PUSH32 0x6164647265737300000000000000000000000000000000000000000000000000 PUSH1 0x64 DUP3 ADD MSTORE REVERT JUMPDEST PUSH1 0x1 SWAP1 PUSH32 0xFFFFFFFFFFFFFFFFFFFFFFFFFFFFFFFFFFFFFFFFFFFFFFFFFFFFFFFFFFFFFFFE DUP2 GT PUSH2 0x1B8A JUMPI ADD SWAP1 JUMP JUMPDEST DUP2 NOT DUP2 GT PUSH2 0x1B8A JUMPI ADD SWAP1 JUMP JUMPDEST SWAP1 PUSH2 0x2004 DUP4 PUSH2 0x1B96 JUMP JUMPDEST SWAP1 PUSH20 0xFFFFFFFFFFFFFFFFFFFFFFFFFFFFFFFFFFFFFFFF SWAP3 DUP4 SWAP2 DUP3 DUP7 AND SWAP5 DUP6 SWAP2 AND SUB PUSH2 0x21D5 JUMPI PUSH2 0x20F3 SWAP2 DUP2 AND SWAP5 PUSH2 0x203B DUP7 ISZERO ISZERO PUSH2 0x1F4F JUMP JUMPDEST PUSH2 0x2044 DUP8 PUSH2 0x223F JUMP JUMPDEST PUSH2 0x204D DUP8 PUSH2 0x1FC0 JUMP JUMPDEST PUSH2 0x2092 PUSH2 0x1273 DUP3 PUSH1 0xFF PUSH32 0x8000000000000000000000000000000000000000000000000000000000000000 SWAP2 DUP1 PUSH1 0x8 SHR PUSH1 0x0 MSTORE PUSH1 0x0 PUSH1 0x20 MSTORE AND SHR PUSH1 0x40 PUSH1 0x0 KECCAK256 SLOAD AND ISZERO ISZERO SWAP1 JUMP JUMPDEST DUP1 PUSH2 0x21CA JUMPI JUMPDEST PUSH2 0x216A JUMPI JUMPDEST POP POP PUSH2 0x20B3 DUP7 PUSH1 0x0 MSTORE PUSH1 0x3 PUSH1 0x20 MSTORE PUSH1 0x40 PUSH1 0x0 KECCAK256 SWAP1 JUMP JUMPDEST SWAP1 PUSH20 0xFFFFFFFFFFFFFFFFFFFFFFFFFFFFFFFFFFFFFFFF AND PUSH32 0xFFFFFFFFFFFFFFFFFFFFFFFF0000000000000000000000000000000000000000 DUP3 SLOAD AND OR SWAP1 SSTORE JUMP JUMPDEST DUP4 SUB PUSH2 0x2123 JUMPI JUMPDEST PUSH32 0xDDF252AD1BE2C89B69C2B068FC378DAA952BA7F163C4A11628F55A4DF523B3EF PUSH1 0x0 PUSH1 0x40 MLOAD LOG4 JUMP JUMPDEST PUSH2 0x2165 DUP4 DUP1 PUSH1 0x8 SHR PUSH1 0x0 MSTORE PUSH1 0x0 PUSH1 0x20 MSTORE PUSH32 0x8000000000000000000000000000000000000000000000000000000000000000 PUSH1 0xFF PUSH1 0x40 PUSH1 0x0 KECCAK256 SWAP3 AND SHR DUP2 SLOAD OR SWAP1 SSTORE JUMP JUMPDEST PUSH2 0x20FA JUMP JUMPDEST PUSH2 0x2185 PUSH2 0x21C3 SWAP3 PUSH2 0x20B3 DUP4 PUSH1 0x0 MSTORE PUSH1 0x3 PUSH1 0x20 MSTORE PUSH1 0x40 PUSH1 0x0 KECCAK256 SWAP1 JUMP JUMPDEST DUP1 PUSH1 0x8 SHR PUSH1 0x0 MSTORE PUSH1 0x0 PUSH1 0x20 MSTORE PUSH32 0x8000000000000000000000000000000000000000000000000000000000000000 PUSH1 0xFF PUSH1 0x40 PUSH1 0x0 KECCAK256 SWAP3 AND SHR DUP2 SLOAD OR SWAP1 SSTORE JUMP JUMPDEST CODESIZE DUP1 PUSH2 0x209D JUMP JUMPDEST POP PUSH1 0x4 SLOAD DUP2 LT PUSH2 0x2098 JUMP JUMPDEST PUSH1 0x84 PUSH1 0x40 MLOAD PUSH3 0x461BCD PUSH1 0xE5 SHL DUP2 MSTORE PUSH1 0x20 PUSH1 0x4 DUP3 ADD MSTORE PUSH1 0x2C PUSH1 0x24 DUP3 ADD MSTORE PUSH32 0x4552433732315073693A207472616E73666572206F6620746F6B656E20746861 PUSH1 0x44 DUP3 ADD MSTORE PUSH32 0x74206973206E6F74206F776E0000000000000000000000000000000000000000 PUSH1 0x64 DUP3 ADD MSTORE REVERT JUMPDEST DUP1 PUSH1 0x0 MSTORE PUSH1 0x5 PUSH1 0x20 MSTORE PUSH1 0x40 PUSH1 0x0 KECCAK256 PUSH32 0xFFFFFFFFFFFFFFFFFFFFFFFF0000000000000000000000000000000000000000 DUP2 SLOAD AND SWAP1 SSTORE PUSH1 0x0 PUSH20 0xFFFFFFFFFFFFFFFFFFFFFFFFFFFFFFFFFFFFFFFF PUSH2 0x2293 DUP4 PUSH2 0x1B96 JUMP JUMPDEST POP AND PUSH32 0x8C5BE1E5EBEC7D5BD14F71427D1E84F3DD0314C0F7B2291E5B200AC8C7C3B925 DUP3 PUSH1 0x40 MLOAD LOG4 JUMP JUMPDEST DUP2 PUSH1 0x0 MSTORE PUSH1 0x5 PUSH1 0x20 MSTORE PUSH2 0x230F DUP2 PUSH1 0x40 PUSH1 0x0 KECCAK256 SWAP1 PUSH20 0xFFFFFFFFFFFFFFFFFFFFFFFFFFFFFFFFFFFFFFFF AND PUSH32 0xFFFFFFFFFFFFFFFFFFFFFFFF0000000000000000000000000000000000000000 DUP3 SLOAD AND OR SWAP1 SSTORE JUMP JUMPDEST PUSH2 0x2318 DUP3 PUSH2 0x1B96 JUMP JUMPDEST POP SWAP1 PUSH20 0xFFFFFFFFFFFFFFFFFFFFFFFFFFFFFFFFFFFFFFFF DUP1 SWAP2 AND SWAP2 AND PUSH32 0x8C5BE1E5EBEC7D5BD14F71427D1E84F3DD0314C0F7B2291E5B200AC8C7C3B925 PUSH1 0x0 PUSH1 0x40 MLOAD LOG4 JUMP JUMPDEST SWAP1 DUP2 PUSH1 0x20 SWAP2 SUB SLT PUSH2 0xE JUMPI MLOAD PUSH2 0x47C DUP2 PUSH2 0x2B0 JUMP JUMPDEST SWAP1 SWAP3 PUSH2 0x47C SWAP5 SWAP4 PUSH1 0x80 SWAP4 PUSH20 0xFFFFFFFFFFFFFFFFFFFFFFFFFFFFFFFFFFFFFFFF DUP1 SWAP3 AND DUP5 MSTORE AND PUSH1 0x20 DUP4 ADD MSTORE PUSH1 0x40 DUP3 ADD MSTORE DUP2 PUSH1 0x60 DUP3 ADD MSTORE ADD SWAP1 PUSH2 0x446 JUMP JUMPDEST POP PUSH1 0x40 MLOAD RETURNDATASIZE PUSH1 0x0 DUP3 RETURNDATACOPY RETURNDATASIZE SWAP1 REVERT JUMPDEST RETURNDATASIZE ISZERO PUSH2 0x23E6 JUMPI RETURNDATASIZE SWAP1 PUSH2 0x23CC DUP3 PUSH2 0x156C JUMP JUMPDEST SWAP2 PUSH2 0x23DA PUSH1 0x40 MLOAD SWAP4 DUP5 PUSH2 0xC05 JUMP JUMPDEST DUP3 MSTORE RETURNDATASIZE PUSH1 0x0 PUSH1 0x20 DUP5 ADD RETURNDATACOPY JUMP JUMPDEST PUSH1 0x60 SWAP1 JUMP JUMPDEST SWAP2 SWAP3 SWAP1 DUP1 EXTCODESIZE ISZERO PUSH2 0x25B2 JUMPI SWAP1 SWAP3 SWAP2 PUSH1 0x1 SWAP1 DUP2 SWAP5 DUP3 DUP6 SWAP4 JUMPDEST PUSH2 0x240F JUMPI JUMPDEST POP POP POP POP POP POP SWAP1 JUMP JUMPDEST PUSH2 0x241C DUP7 SWAP8 SWAP9 SWAP6 SWAP7 PUSH2 0x1FC0 JUMP JUMPDEST DUP5 LT ISZERO PUSH2 0x25A9 JUMPI PUSH1 0x40 SWAP6 DUP7 MLOAD SWAP8 PUSH32 0x150B7A0200000000000000000000000000000000000000000000000000000000 SWAP10 DUP11 DUP11 MSTORE PUSH1 0x20 SWAP11 DUP12 PUSH1 0x4 SWAP12 DUP1 DUP14 DUP10 DUP13 DUP13 CALLER SWAP4 DUP6 ADD SWAP4 PUSH2 0x2468 SWAP5 PUSH2 0x2372 JUMP JUMPDEST SUB SWAP1 DUP3 DUP2 PUSH1 0x0 SWAP4 DUP2 DUP6 PUSH20 0xFFFFFFFFFFFFFFFFFFFFFFFFFFFFFFFFFFFFFFFF DUP13 AND GAS CALL SWAP2 SWAP3 DUP3 PUSH2 0x257A JUMPI JUMPDEST POP POP PUSH2 0x2523 JUMPI DUP13 DUP13 DUP13 PUSH2 0x24A3 PUSH2 0x23BB JUMP JUMPDEST DUP1 MLOAD SWAP4 DUP5 PUSH2 0x251D JUMPI PUSH2 0x1365 DUP5 DUP5 MLOAD SWAP2 DUP3 SWAP2 PUSH3 0x461BCD PUSH1 0xE5 SHL DUP4 MSTORE DUP3 ADD PUSH1 0x80 SWAP1 PUSH1 0x20 DUP2 MSTORE PUSH1 0x35 PUSH1 0x20 DUP3 ADD MSTORE PUSH32 0x4552433732315073693A207472616E7366657220746F206E6F6E204552433732 PUSH1 0x40 DUP3 ADD MSTORE PUSH32 0x31526563656976657220696D706C656D656E7465720000000000000000000000 PUSH1 0x60 DUP3 ADD MSTORE ADD SWAP1 JUMP JUMPDEST DUP5 SWAP3 POP ADD REVERT JUMPDEST SWAP2 SWAP4 SWAP7 SWAP10 POP SWAP2 SWAP5 SWAP8 SWAP11 POP PUSH2 0x2542 SWAP4 SWAP7 SWAP10 POP DUP3 PUSH2 0x254E JUMPI JUMPDEST POP POP SWAP7 PUSH2 0x1B7A JUMP JUMPDEST SWAP3 DUP1 SWAP6 SWAP3 SWAP5 SWAP2 SWAP6 PUSH2 0x2401 JUMP JUMPDEST PUSH32 0xFFFFFFFF00000000000000000000000000000000000000000000000000000000 AND EQ SWAP1 POP CODESIZE DUP1 PUSH2 0x253A JUMP JUMPDEST PUSH2 0x259A SWAP3 SWAP4 POP DUP1 RETURNDATASIZE LT PUSH2 0x25A2 JUMPI JUMPDEST PUSH2 0x2592 DUP2 DUP4 PUSH2 0xC05 JUMP JUMPDEST DUP2 ADD SWAP1 PUSH2 0x235D JUMP JUMPDEST SWAP1 CODESIZE DUP15 PUSH2 0x2492 JUMP JUMPDEST POP RETURNDATASIZE PUSH2 0x2588 JUMP JUMPDEST DUP5 SWAP8 SWAP7 POP PUSH2 0x2406 JUMP JUMPDEST POP POP POP POP PUSH1 0x1 SWAP1 JUMP JUMPDEST ISZERO PUSH2 0x25C2 JUMPI JUMP JUMPDEST PUSH1 0x84 PUSH1 0x40 MLOAD PUSH3 0x461BCD PUSH1 0xE5 SHL DUP2 MSTORE PUSH1 0x20 PUSH1 0x4 DUP3 ADD MSTORE PUSH1 0x34 PUSH1 0x24 DUP3 ADD MSTORE PUSH32 0x4269744D6170733A205468652073657420626974206265666F72652074686520 PUSH1 0x44 DUP3 ADD MSTORE PUSH32 0x696E64657820646F65736E27742065786973742E000000000000000000000000 PUSH1 0x64 DUP3 ADD MSTORE REVERT JUMPDEST PUSH1 0x8 SWAP1 PUSH1 0xFF DUP2 DUP4 SHR SWAP2 AND DUP2 PUSH1 0x0 MSTORE PUSH1 0x0 PUSH1 0x20 MSTORE PUSH1 0x40 PUSH1 0x0 KECCAK256 SLOAD DUP2 PUSH1 0xFF XOR SHR DUP1 ISZERO ISZERO PUSH1 0x0 EQ PUSH2 0x266E JUMPI PUSH2 0x2660 PUSH2 0x2666 SWAP2 PUSH2 0x2703 JUMP JUMPDEST PUSH1 0xFF AND SWAP1 JUMP JUMPDEST SWAP1 SUB SWAP2 SHL OR SWAP1 JUMP JUMPDEST POP POP PUSH1 0x0 NOT SWAP1 JUMPDEST PUSH2 0x2680 DUP2 ISZERO ISZERO PUSH2 0x25BB JUMP JUMPDEST ADD PUSH2 0x2695 DUP2 PUSH1 0x0 MSTORE PUSH1 0x0 PUSH1 0x20 MSTORE PUSH1 0x40 PUSH1 0x0 KECCAK256 SWAP1 JUMP JUMPDEST SLOAD DUP1 PUSH2 0x26A5 JUMPI POP PUSH1 0x0 NOT SWAP1 PUSH2 0x2675 JUMP JUMPDEST PUSH2 0x2660 PUSH2 0x26B4 PUSH2 0x26BD SWAP3 PUSH2 0x2703 JUMP JUMPDEST PUSH1 0xFF SWAP1 DUP2 SUB AND SWAP1 JUMP JUMPDEST SWAP2 SHL OR SWAP1 JUMP JUMPDEST SWAP1 DUP2 MLOAD DUP2 LT ISZERO PUSH2 0x26D4 JUMPI ADD PUSH1 0x20 ADD SWAP1 JUMP JUMPDEST PUSH32 0x4E487B7100000000000000000000000000000000000000000000000000000000 PUSH1 0x0 MSTORE PUSH1 0x32 PUSH1 0x4 MSTORE PUSH1 0x24 PUSH1 0x0 REVERT JUMPDEST PUSH1 0x40 MLOAD PUSH2 0x270F DUP2 PUSH2 0xBE8 JUMP JUMPDEST PUSH32 0xFD1E3E5A7A8AA2B670C4CED8BBE8F0F4FC3D79A1C3CDE7EFFB78CCE6FACBF9F8 PUSH2 0x100 DUP1 DUP4 MSTORE PUSH31 0x1020903110A19042112290B311A3905412245134D2A550C5D32651B6D3A75 PUSH1 0x20 DUP5 ADD MSTORE PUSH32 0x6264262237D468514804E8D2B95569D0D495EA533A966B11C886EB93BC176C9 PUSH1 0x40 DUP5 ADD MSTORE PUSH32 0x71727374353637324837E9B47AF86C7155181AD4FD18ED32C9096DB57D59EE3 PUSH1 0x60 DUP5 ADD MSTORE PUSH32 0xE2E4A6A5F92A6BE3498AAE067DDB2EB1D5989B56FD7BAF33CA0C2EE77E5CAF7 PUSH1 0x80 DUP5 ADD MSTORE PUSH32 0xFF0810182028303840444C545C646C7425617C847F8C949C48A4A8B087B8C0C8 PUSH1 0xA0 DUP5 ADD MSTORE PUSH32 0x16365272829AAEC650ACD0D28FDAD4E22D6991BD97DFDCEA58B4D6F29FEDE4F6 PUSH1 0xC0 DUP5 ADD MSTORE PUSH32 0xFE0F1F2F3F4B5B6B607B8B93A3A7B7BF357199C5ABCFD9E168BCDEE9B3F1ECF5 PUSH1 0xE0 DUP5 ADD MSTORE DUP3 ADD MSTORE DUP2 ISZERO PUSH2 0xE JUMPI PUSH2 0x2882 PUSH2 0x28A8 SWAP2 PUSH31 0x818283848586878898A8B8C8D8E8F929395969799A9B9D9E9FAAEB6BEDEEFF DUP5 PUSH2 0x47C SWAP6 PUSH1 0x0 SUB AND MUL PUSH1 0xF8 SHR SWAP1 PUSH2 0x26C3 JUMP JUMPDEST MLOAD PUSH32 0xFF00000000000000000000000000000000000000000000000000000000000000 AND SWAP1 JUMP JUMPDEST PUSH1 0xF8 SHR SWAP1 JUMP JUMPDEST PUSH1 0x0 PUSH1 0x4 SLOAD SWAP2 DUP3 DUP2 LT ISZERO PUSH2 0x290A JUMPI PUSH1 0x0 SWAP2 DUP3 JUMPDEST DUP5 DUP2 LT DUP1 ISZERO PUSH2 0x2901 JUMPI PUSH2 0x28DD JUMPI JUMPDEST PUSH2 0x28D8 SWAP1 PUSH2 0x1B7A JUMP JUMPDEST PUSH2 0x28C1 JUMP JUMPDEST SWAP3 DUP3 DUP2 SUB PUSH2 0x28ED JUMPI POP POP POP SWAP1 POP SWAP1 JUMP JUMPDEST PUSH2 0x28F9 PUSH2 0x28D8 SWAP2 PUSH2 0x1B7A JUMP JUMPDEST SWAP4 SWAP1 POP PUSH2 0x28CF JUMP JUMPDEST POP POP SWAP4 SWAP3 POP POP POP JUMP JUMPDEST PUSH1 0x84 PUSH1 0x40 MLOAD PUSH3 0x461BCD PUSH1 0xE5 SHL DUP2 MSTORE PUSH1 0x20 PUSH1 0x4 DUP3 ADD MSTORE PUSH1 0x25 PUSH1 0x24 DUP3 ADD MSTORE PUSH32 0x4552433732315073693A20676C6F62616C20696E646578206F7574206F662062 PUSH1 0x44 DUP3 ADD MSTORE PUSH32 0x6F756E6473000000000000000000000000000000000000000000000000000000 PUSH1 0x64 DUP3 ADD MSTORE REVERT JUMPDEST PUSH1 0x4 SLOAD SWAP2 PUSH1 0x0 SWAP2 DUP3 JUMPDEST DUP5 DUP2 LT DUP1 ISZERO PUSH2 0x29EE JUMPI DUP1 PUSH2 0x29C3 JUMPI JUMPDEST PUSH2 0x299F JUMPI JUMPDEST PUSH2 0x299A SWAP1 PUSH2 0x1B7A JUMP JUMPDEST PUSH2 0x297D JUMP JUMPDEST SWAP3 DUP3 DUP2 SUB PUSH2 0x29AF JUMPI POP POP POP SWAP1 POP SWAP1 JUMP JUMPDEST PUSH2 0x29BB PUSH2 0x299A SWAP2 PUSH2 0x1B7A JUMP JUMPDEST SWAP4 SWAP1 POP PUSH2 0x2991 JUMP JUMPDEST POP PUSH2 0x29CD DUP2 PUSH2 0x1B96 JUMP JUMPDEST POP PUSH20 0xFFFFFFFFFFFFFFFFFFFFFFFFFFFFFFFFFFFFFFFF DUP4 DUP2 AND SWAP2 AND EQ PUSH2 0x298C JUMP JUMPDEST PUSH1 0x84 PUSH1 0x40 MLOAD PUSH3 0x461BCD PUSH1 0xE5 SHL DUP2 MSTORE PUSH1 0x20 PUSH1 0x4 DUP3 ADD MSTORE PUSH1 0x24 DUP1 DUP3 ADD MSTORE PUSH32 0x4552433732315073693A206F776E657220696E646578206F7574206F6620626F PUSH1 0x44 DUP3 ADD MSTORE PUSH32 0x756E647300000000000000000000000000000000000000000000000000000000 PUSH1 0x64 DUP3 ADD MSTORE REVERT JUMPDEST PUSH1 0x0 NOT SWAP1 PUSH1 0x1 DUP2 LT PUSH2 0x1B8A JUMPI ADD SWAP1 JUMP JUMPDEST ISZERO PUSH2 0x2A6E JUMPI JUMP JUMPDEST PUSH1 0x84 PUSH1 0x40 MLOAD PUSH3 0x461BCD PUSH1 0xE5 SHL DUP2 MSTORE PUSH1 0x20 PUSH1 0x4 DUP3 ADD MSTORE PUSH1 0x23 PUSH1 0x24 DUP3 ADD MSTORE PUSH32 0x4552433732315073693A206D696E7420746F20746865207A65726F2061646472 PUSH1 0x44 DUP3 ADD MSTORE PUSH32 0x6573730000000000000000000000000000000000000000000000000000000000 PUSH1 0x64 DUP3 ADD MSTORE REVERT JUMPDEST SWAP2 PUSH1 0x4 SLOAD SWAP2 DUP1 ISZERO PUSH2 0x2BCA JUMPI PUSH2 0x2B2F PUSH20 0xFFFFFFFFFFFFFFFFFFFFFFFFFFFFFFFFFFFFFFFF DUP6 AND SWAP5 PUSH2 0x2B09 DUP7 ISZERO ISZERO PUSH2 0x2A67 JUMP JUMPDEST PUSH2 0x2B1B PUSH2 0x2B16 DUP5 DUP8 PUSH2 0x1FEE JUMP JUMPDEST PUSH1 0x4 SSTORE JUMP JUMPDEST PUSH2 0x20B3 DUP6 PUSH1 0x0 MSTORE PUSH1 0x3 PUSH1 0x20 MSTORE PUSH1 0x40 PUSH1 0x0 KECCAK256 SWAP1 JUMP JUMPDEST PUSH2 0x2B71 DUP4 DUP1 PUSH1 0x8 SHR PUSH1 0x0 MSTORE PUSH1 0x0 PUSH1 0x20 MSTORE PUSH32 0x8000000000000000000000000000000000000000000000000000000000000000 PUSH1 0xFF PUSH1 0x40 PUSH1 0x0 KECCAK256 SWAP3 AND SHR DUP2 SLOAD OR SWAP1 SSTORE JUMP JUMPDEST DUP3 JUMPDEST PUSH2 0x2B7D DUP3 DUP6 PUSH2 0x1FEE JUMP JUMPDEST DUP2 LT ISZERO PUSH2 0x2BC3 JUMPI SWAP1 PUSH2 0x2BBB DUP3 PUSH2 0x2B7D SWAP4 DUP8 PUSH1 0x0 PUSH32 0xDDF252AD1BE2C89B69C2B068FC378DAA952BA7F163C4A11628F55A4DF523B3EF DUP2 PUSH1 0x40 MLOAD LOG4 PUSH2 0x1B7A JUMP JUMPDEST SWAP1 SWAP2 POP PUSH2 0x2B73 JUMP JUMPDEST POP POP SWAP2 POP POP JUMP JUMPDEST PUSH1 0x84 PUSH1 0x40 MLOAD PUSH3 0x461BCD PUSH1 0xE5 SHL DUP2 MSTORE PUSH1 0x20 PUSH1 0x4 DUP3 ADD MSTORE PUSH1 0x25 PUSH1 0x24 DUP3 ADD MSTORE PUSH32 0x4552433732315073693A207175616E74697479206D7573742062652067726561 PUSH1 0x44 DUP3 ADD MSTORE PUSH32 0x7465722030000000000000000000000000000000000000000000000000000000 PUSH1 0x64 DUP3 ADD MSTORE REVERT JUMPDEST PUSH1 0x1F DUP2 GT PUSH2 0x2C40 JUMPI POP POP JUMP JUMPDEST PUSH1 0x0 SWAP1 PUSH1 0xE DUP3 MSTORE PUSH32 0xBB7B4A454DC3493923482F07822329ED19E8244EFF582CC204F8554C3620C3FD SWAP1 PUSH1 0x20 PUSH1 0x1F DUP6 ADD PUSH1 0x5 SHR DUP4 ADD SWAP5 LT PUSH2 0x2C9B JUMPI JUMPDEST PUSH1 0x1F ADD PUSH1 0x5 SHR ADD SWAP2 JUMPDEST DUP3 DUP2 LT PUSH2 0x2C90 JUMPI POP POP POP JUMP JUMPDEST DUP2 DUP2 SSTORE PUSH1 0x1 ADD PUSH2 0x2C84 JUMP JUMPDEST SWAP1 SWAP3 POP DUP3 SWAP1 PUSH2 0x2C7B JUMP JUMPDEST PUSH1 0x1F DUP2 GT PUSH2 0x2CB1 JUMPI POP POP JUMP JUMPDEST PUSH1 0x0 SWAP1 PUSH1 0x9 DUP3 MSTORE PUSH32 0x6E1540171B6C0C960B71A7020D9F60077F6AF931A8BBF590DA0223DACF75C7AF SWAP1 PUSH1 0x20 PUSH1 0x1F DUP6 ADD PUSH1 0x5 SHR DUP4 ADD SWAP5 LT PUSH2 0x2D0C JUMPI JUMPDEST PUSH1 0x1F ADD PUSH1 0x5 SHR ADD SWAP2 JUMPDEST DUP3 DUP2 LT PUSH2 0x2D01 JUMPI POP POP POP JUMP JUMPDEST DUP2 DUP2 SSTORE PUSH1 0x1 ADD PUSH2 0x2CF5 JUMP JUMPDEST SWAP1 SWAP3 POP DUP3 SWAP1 PUSH2 0x2CEC JUMP JUMPDEST PUSH1 0x9 SLOAD PUSH1 0x0 SWAP3 SWAP2 PUSH2 0x2D26 DUP3 PUSH2 0xB3C JUMP JUMPDEST SWAP2 PUSH1 0x1 SWAP1 DUP2 DUP2 AND SWAP1 DUP2 ISZERO PUSH2 0x2D92 JUMPI POP PUSH1 0x1 EQ PUSH2 0x2D41 JUMPI POP POP POP JUMP JUMPDEST SWAP1 SWAP2 SWAP3 SWAP4 POP PUSH1 0x9 PUSH1 0x0 MSTORE PUSH32 0x6E1540171B6C0C960B71A7020D9F60077F6AF931A8BBF590DA0223DACF75C7AF SWAP1 PUSH1 0x0 SWAP2 JUMPDEST DUP5 DUP4 LT PUSH2 0x2D7F JUMPI POP POP POP ADD SWAP1 JUMP JUMPDEST DUP2 DUP2 PUSH1 0x20 SWAP3 SLOAD DUP6 DUP8 ADD MSTORE ADD SWAP3 ADD SWAP2 PUSH2 0x2D71 JUMP JUMPDEST PUSH32 0xFFFFFFFFFFFFFFFFFFFFFFFFFFFFFFFFFFFFFFFFFFFFFFFFFFFFFFFFFFFFFF00 AND DUP4 MSTORE POP POP DUP2 ISZERO ISZERO SWAP1 SWAP2 MUL ADD SWAP2 POP JUMP JUMPDEST SWAP1 PUSH2 0x1B92 PUSH1 0x20 SWAP3 DUP3 DUP2 MLOAD SWAP5 DUP6 SWAP3 ADD PUSH2 0x411 JUMP JUMPDEST DUP1 ISZERO PUSH2 0x2E99 JUMPI DUP1 PUSH1 0x0 SWAP1 DUP3 DUP3 SWAP4 JUMPDEST PUSH2 0x2E85 JUMPI POP PUSH2 0x2DF2 DUP4 PUSH2 0x156C JUMP JUMPDEST SWAP3 PUSH2 0x2E00 PUSH1 0x40 MLOAD SWAP5 DUP6 PUSH2 0xC05 JUMP JUMPDEST DUP1 DUP5 MSTORE DUP2 PUSH1 0x1F NOT PUSH2 0x2E10 DUP4 PUSH2 0x156C JUMP JUMPDEST ADD CALLDATASIZE PUSH1 0x20 DUP8 ADD CALLDATACOPY JUMPDEST PUSH2 0x2E22 JUMPI POP POP POP SWAP1 JUMP JUMPDEST PUSH2 0x2E2B SWAP1 PUSH2 0x2A57 JUMP JUMPDEST SWAP1 PUSH1 0xA SWAP1 PUSH32 0xFF00000000000000000000000000000000000000000000000000000000000000 DUP3 DUP3 MOD PUSH1 0x30 DUP2 NOT DUP2 GT PUSH2 0x2E78 JUMPI JUMPDEST ADD PUSH1 0xF8 SHL AND DUP5 BYTE PUSH2 0x2E6F DUP5 DUP8 PUSH2 0x26C3 JUMP JUMPDEST MSTORE8 DIV SWAP1 DUP2 PUSH2 0x2E18 JUMP JUMPDEST PUSH2 0x2E80 PUSH2 0x1B2B JUMP JUMPDEST PUSH2 0x2E5E JUMP JUMPDEST SWAP3 PUSH2 0x2E91 PUSH1 0xA SWAP2 PUSH2 0x1B7A JUMP JUMPDEST SWAP4 DIV DUP1 PUSH2 0x2DE4 JUMP JUMPDEST POP PUSH1 0x40 MLOAD PUSH2 0x2EA6 DUP2 PUSH2 0xBBF JUMP JUMPDEST PUSH1 0x1 DUP2 MSTORE PUSH32 0x3000000000000000000000000000000000000000000000000000000000000000 PUSH1 0x20 DUP3 ADD MSTORE SWAP1 JUMP INVALID LOG2 PUSH5 0x6970667358 0x22 SLT KECCAK256 SWAP1 JUMPI SWAP12 DUP1 AND 0x4B EXTCODECOPY 0xD9 CODESIZE RETURNDATACOPY 0xA5 DUP11 JUMPI 0xE1 BYTE DUP10 0xC 0xD0 JUMPDEST CREATE2 INVALID MULMOD EXTCODESIZE 0x25 CALLDATASIZE 0xC0 PUSH8 0xEA1A10A1164736F PUSH13 0x634300080F0033000000000000 "
        },
        "methodIdentifiers": {
          "approve(address,uint256)": "095ea7b3",
          "balanceOf(address)": "70a08231",
          "baseURI()": "6c0360eb",
          "claimed(address)": "c884ef83",
          "freeMints()": "80b17335",
          "getApproved(uint256)": "081812fc",
          "isApprovedForAll(address,address)": "e985e9c5",
          "mint(uint256)": "a0712d68",
          "mintOpen()": "24bbd049",
          "name()": "06fdde03",
          "owner()": "8da5cb5b",
          "ownerOf(uint256)": "6352211e",
          "price()": "a035b1fe",
          "renounceOwnership()": "715018a6",
          "royaltyInfo(uint256,uint256)": "2a55205a",
          "safeTransferFrom(address,address,uint256)": "42842e0e",
          "safeTransferFrom(address,address,uint256,bytes)": "b88d4fde",
          "setApprovalForAll(address,bool)": "a22cb465",
          "setBaseURI(string)": "55f804b3",
          "setPrice(uint256)": "91b7f5ed",
          "setRoyalties(address,uint256)": "8c7ea24b",
          "setUnrevealedURI(string)": "fe2c7fee",
          "supportsInterface(bytes4)": "01ffc9a7",
          "symbol()": "95d89b41",
          "toggleMint()": "d3dd5fe0",
          "tokenByIndex(uint256)": "4f6ccce7",
          "tokenOfOwnerByIndex(address,uint256)": "2f745c59",
          "tokenURI(uint256)": "c87b56dd",
          "totalSupply()": "18160ddd",
          "transferFrom(address,address,uint256)": "23b872dd",
          "transferOwnership(address)": "f2fde38b",
          "unrevealedURI()": "7035bf18",
          "withdraw()": "3ccfd60b"
        }
      }
    }
  }
}